{
  "contractName": "TroveIt",
  "abi": [
    {
      "inputs": [],
      "stateMutability": "nonpayable",
      "type": "constructor"
    },
    {
      "anonymous": false,
      "inputs": [
        {
          "indexed": true,
          "internalType": "address",
          "name": "tokenOwner",
          "type": "address"
        },
        {
          "indexed": true,
          "internalType": "address",
          "name": "spender",
          "type": "address"
        },
        {
          "indexed": false,
          "internalType": "uint256",
          "name": "tokens",
          "type": "uint256"
        }
      ],
      "name": "Approval",
      "type": "event"
    },
    {
      "anonymous": false,
      "inputs": [
        {
          "indexed": true,
          "internalType": "address",
          "name": "from",
          "type": "address"
        },
        {
          "indexed": true,
          "internalType": "address",
          "name": "to",
          "type": "address"
        },
        {
          "indexed": false,
          "internalType": "uint256",
          "name": "tokens",
          "type": "uint256"
        }
      ],
      "name": "Transfer",
      "type": "event"
    },
    {
      "anonymous": false,
      "inputs": [
        {
          "indexed": false,
          "internalType": "uint256",
          "name": "id",
          "type": "uint256"
        },
        {
          "indexed": false,
          "internalType": "string",
          "name": "hash",
          "type": "string"
        },
        {
          "indexed": false,
          "internalType": "string",
          "name": "title",
          "type": "string"
        },
        {
          "indexed": false,
          "internalType": "address payable",
          "name": "author",
          "type": "address"
        }
      ],
      "name": "VideoUploaded",
      "type": "event"
    },
    {
      "inputs": [
        {
          "internalType": "address",
          "name": "owner",
          "type": "address"
        },
        {
          "internalType": "address",
          "name": "delegate",
          "type": "address"
        }
      ],
      "name": "allowance",
      "outputs": [
        {
          "internalType": "uint256",
          "name": "",
          "type": "uint256"
        }
      ],
      "stateMutability": "view",
      "type": "function",
      "constant": true
    },
    {
      "inputs": [
        {
          "internalType": "address",
          "name": "delegate",
          "type": "address"
        },
        {
          "internalType": "uint256",
          "name": "numTokens",
          "type": "uint256"
        }
      ],
      "name": "approve",
      "outputs": [
        {
          "internalType": "bool",
          "name": "",
          "type": "bool"
        }
      ],
      "stateMutability": "nonpayable",
      "type": "function"
    },
    {
      "inputs": [
        {
          "internalType": "address",
          "name": "tokenOwner",
          "type": "address"
        }
      ],
      "name": "balanceOf",
      "outputs": [
        {
          "internalType": "uint256",
          "name": "",
          "type": "uint256"
        }
      ],
      "stateMutability": "view",
      "type": "function",
      "constant": true
    },
    {
      "inputs": [],
      "name": "decimals",
      "outputs": [
        {
          "internalType": "uint8",
          "name": "",
          "type": "uint8"
        }
      ],
      "stateMutability": "view",
      "type": "function",
      "constant": true
    },
    {
      "inputs": [],
      "name": "feedPostCount",
      "outputs": [
        {
          "internalType": "uint256",
          "name": "",
          "type": "uint256"
        }
      ],
      "stateMutability": "view",
      "type": "function",
      "constant": true
    },
    {
      "inputs": [
        {
          "internalType": "uint256",
          "name": "",
          "type": "uint256"
        }
      ],
      "name": "feedPosts",
      "outputs": [
        {
          "internalType": "uint256",
          "name": "id",
          "type": "uint256"
        },
        {
          "internalType": "uint256",
          "name": "likes",
          "type": "uint256"
        },
        {
          "internalType": "string",
          "name": "hash",
          "type": "string"
        },
        {
          "internalType": "string",
          "name": "phash",
          "type": "string"
        },
        {
          "internalType": "string",
          "name": "caption",
          "type": "string"
        },
        {
          "internalType": "uint256",
          "name": "originalId",
          "type": "uint256"
        },
        {
          "internalType": "address payable",
          "name": "owner",
          "type": "address"
        }
      ],
      "stateMutability": "view",
      "type": "function",
      "constant": true
    },
    {
      "inputs": [],
      "name": "name",
      "outputs": [
        {
          "internalType": "string",
          "name": "",
          "type": "string"
        }
      ],
      "stateMutability": "view",
      "type": "function",
      "constant": true
    },
    {
      "inputs": [],
      "name": "originalPostCount",
      "outputs": [
        {
          "internalType": "uint256",
          "name": "",
          "type": "uint256"
        }
      ],
      "stateMutability": "view",
      "type": "function",
      "constant": true
    },
    {
      "inputs": [
        {
          "internalType": "uint256",
          "name": "",
          "type": "uint256"
        }
      ],
      "name": "originalPosts",
      "outputs": [
        {
          "internalType": "uint256",
          "name": "id",
          "type": "uint256"
        },
        {
          "internalType": "uint256",
          "name": "likes",
          "type": "uint256"
        },
        {
          "internalType": "string",
          "name": "hash",
          "type": "string"
        },
        {
          "internalType": "string",
          "name": "phash",
          "type": "string"
        },
        {
          "internalType": "string",
          "name": "caption",
          "type": "string"
        },
        {
          "internalType": "address payable",
          "name": "owner",
          "type": "address"
        },
        {
          "internalType": "bool",
          "name": "martketplace",
          "type": "bool"
        },
        {
          "internalType": "uint256",
          "name": "price",
          "type": "uint256"
        }
      ],
      "stateMutability": "view",
      "type": "function",
      "constant": true
    },
    {
      "inputs": [],
      "name": "symbol",
      "outputs": [
        {
          "internalType": "string",
          "name": "",
          "type": "string"
        }
      ],
      "stateMutability": "view",
      "type": "function",
      "constant": true
    },
    {
      "inputs": [],
      "name": "tokenAddress",
      "outputs": [
        {
          "internalType": "address",
          "name": "",
          "type": "address"
        }
      ],
      "stateMutability": "view",
      "type": "function",
      "constant": true
    },
    {
      "inputs": [],
      "name": "totalSupply",
      "outputs": [
        {
          "internalType": "uint256",
          "name": "",
          "type": "uint256"
        }
      ],
      "stateMutability": "view",
      "type": "function",
      "constant": true
    },
    {
      "inputs": [
        {
          "internalType": "address",
          "name": "receiver",
          "type": "address"
        },
        {
          "internalType": "uint256",
          "name": "numTokens",
          "type": "uint256"
        }
      ],
      "name": "transfer",
      "outputs": [
        {
          "internalType": "bool",
          "name": "",
          "type": "bool"
        }
      ],
      "stateMutability": "nonpayable",
      "type": "function"
    },
    {
      "inputs": [
        {
          "internalType": "address",
          "name": "owner",
          "type": "address"
        },
        {
          "internalType": "address",
          "name": "buyer",
          "type": "address"
        },
        {
          "internalType": "uint256",
          "name": "numTokens",
          "type": "uint256"
        }
      ],
      "name": "transferFrom",
      "outputs": [
        {
          "internalType": "bool",
          "name": "",
          "type": "bool"
        }
      ],
      "stateMutability": "nonpayable",
      "type": "function"
    },
    {
      "inputs": [],
      "name": "userCount",
      "outputs": [
        {
          "internalType": "uint256",
          "name": "",
          "type": "uint256"
        }
      ],
      "stateMutability": "view",
      "type": "function",
      "constant": true
    },
    {
      "inputs": [],
      "name": "videoCount",
      "outputs": [
        {
          "internalType": "uint256",
          "name": "",
          "type": "uint256"
        }
      ],
      "stateMutability": "view",
      "type": "function",
      "constant": true
    },
    {
      "inputs": [
        {
          "internalType": "uint256",
          "name": "",
          "type": "uint256"
        }
      ],
      "name": "videos",
      "outputs": [
        {
          "internalType": "uint256",
          "name": "id",
          "type": "uint256"
        },
        {
          "internalType": "string",
          "name": "hash",
          "type": "string"
        },
        {
          "internalType": "string",
          "name": "title",
          "type": "string"
        },
        {
          "internalType": "address payable",
          "name": "author",
          "type": "address"
        },
        {
          "internalType": "uint256",
          "name": "price",
          "type": "uint256"
        }
      ],
      "stateMutability": "view",
      "type": "function",
      "constant": true
    },
    {
      "inputs": [],
      "name": "buyToken",
      "outputs": [],
      "stateMutability": "payable",
      "type": "function",
      "payable": true
    },
    {
      "inputs": [
        {
          "internalType": "uint256",
          "name": "amount",
          "type": "uint256"
        }
      ],
      "name": "sellToken",
      "outputs": [],
      "stateMutability": "nonpayable",
      "type": "function"
    },
    {
      "inputs": [],
      "name": "checkBalance",
      "outputs": [
        {
          "internalType": "uint256",
          "name": "",
          "type": "uint256"
        }
      ],
      "stateMutability": "view",
      "type": "function",
      "constant": true
    },
    {
      "inputs": [],
      "name": "withdraw",
      "outputs": [],
      "stateMutability": "nonpayable",
      "type": "function"
    },
    {
      "inputs": [],
      "name": "signUp",
      "outputs": [],
      "stateMutability": "nonpayable",
      "type": "function"
    },
    {
      "inputs": [
        {
          "internalType": "string",
          "name": "_postHash",
          "type": "string"
        },
        {
          "internalType": "string",
          "name": "_phash",
          "type": "string"
        },
        {
          "internalType": "string",
          "name": "_caption",
          "type": "string"
        },
        {
          "internalType": "bool",
          "name": "_original",
          "type": "bool"
        },
        {
          "internalType": "uint256",
          "name": "_price",
          "type": "uint256"
        },
        {
          "internalType": "uint256",
          "name": "_originalId",
          "type": "uint256"
        }
      ],
      "name": "uploadPost",
      "outputs": [],
      "stateMutability": "nonpayable",
      "type": "function"
    },
    {
      "inputs": [
        {
          "internalType": "uint256",
          "name": "_postId",
          "type": "uint256"
        }
      ],
      "name": "likeOriginalPost",
      "outputs": [],
      "stateMutability": "nonpayable",
      "type": "function"
    },
    {
      "inputs": [
        {
          "internalType": "uint256",
          "name": "_feedpostId",
          "type": "uint256"
        },
        {
          "internalType": "uint256",
          "name": "_originalpostId",
          "type": "uint256"
        }
      ],
      "name": "likeFeedPost",
      "outputs": [],
      "stateMutability": "nonpayable",
      "type": "function"
    },
    {
      "inputs": [
        {
          "internalType": "uint256",
          "name": "_postId",
          "type": "uint256"
        }
      ],
      "name": "changeOwner",
      "outputs": [],
      "stateMutability": "payable",
      "type": "function",
      "payable": true
    },
    {
      "inputs": [
        {
          "internalType": "uint256",
          "name": "_postId",
          "type": "uint256"
        }
      ],
      "name": "repost",
      "outputs": [],
      "stateMutability": "nonpayable",
      "type": "function"
    },
    {
      "inputs": [
        {
          "internalType": "string",
          "name": "_videoHash",
          "type": "string"
        },
        {
          "internalType": "string",
          "name": "_title",
          "type": "string"
        },
        {
          "internalType": "uint256",
          "name": "_price",
          "type": "uint256"
        }
      ],
      "name": "uploadVideo",
      "outputs": [],
      "stateMutability": "nonpayable",
      "type": "function"
    },
    {
      "inputs": [
        {
          "internalType": "uint256",
          "name": "_id",
          "type": "uint256"
        }
      ],
      "name": "watchVideo",
      "outputs": [],
      "stateMutability": "nonpayable",
      "type": "function"
    }
  ],
  "bytecode": "0x6080604052620f424060025567016345785d8a0000600455600060065560006008556000600a556000600c5534801561003757600080fd5b506002546000803373ffffffffffffffffffffffffffffffffffffffff1673ffffffffffffffffffffffffffffffffffffffff1681526020019081526020016000208190555033600360006101000a81548173ffffffffffffffffffffffffffffffffffffffff021916908373ffffffffffffffffffffffffffffffffffffffff16021790555061413e806100cd6000396000f3fe6080604052600436106101c25760003560e01c80637c0fd4be116100f7578063bf005da911610095578063d7195be811610064578063d7195be814610e65578063dd62ed3e14610ea0578063e6821bf514610f25578063e6bf53cc14611070576101c2565b8063bf005da914610be2578063bf96ae6314610df8578063c61b5f4c14610e0f578063c71daccb14610e3a576101c2565b806395d89b41116100d157806395d89b4114610a965780639d76ea5814610b26578063a482171914610b67578063a9059cbb14610b71576101c2565b80637c0fd4be146108655780638cd60fd114610a23578063924c19f714610a68576101c2565b80632397e4d7116101645780633ccfd60b1161013e5780633ccfd60b146105e75780635771a812146105fe578063650ed7091461063957806370a0823114610800576101c2565b80632397e4d7146104ed57806323b872dd14610528578063313ce567146105b9576101c2565b806307973ccf116101a057806307973ccf146103eb578063095ea7b3146104165780630ea37c641461048757806318160ddd146104c2576101c2565b8063020953f1146101c757806306fdde03146101f25780630755594f14610282575b600080fd5b3480156101d357600080fd5b506101dc61109b565b6040518082815260200191505060405180910390f35b3480156101fe57600080fd5b506102076110a1565b6040518080602001828103825283818151815260200191508051906020019080838360005b8381101561024757808201518184015260208101905061022c565b50505050905090810190601f1680156102745780820380516001836020036101000a031916815260200191505b509250505060405180910390f35b34801561028e57600080fd5b506103e9600480360360608110156102a557600080fd5b81019080803590602001906401000000008111156102c257600080fd5b8201836020820111156102d457600080fd5b803590602001918460018302840111640100000000831117156102f657600080fd5b91908080601f016020809104026020016040519081016040528093929190818152602001838380828437600081840152601f19601f8201169050808301925050505050505091929192908035906020019064010000000081111561035957600080fd5b82018360208201111561036b57600080fd5b8035906020019184600183028401116401000000008311171561038d57600080fd5b91908080601f016020809104026020016040519081016040528093929190818152602001838380828437600081840152601f19601f820116905080830192505050505050509192919290803590602001909291905050506110da565b005b3480156103f757600080fd5b50610400611364565b6040518082815260200191505060405180910390f35b34801561042257600080fd5b5061046f6004803603604081101561043957600080fd5b81019080803573ffffffffffffffffffffffffffffffffffffffff1690602001909291908035906020019092919050505061136a565b60405180821515815260200191505060405180910390f35b34801561049357600080fd5b506104c0600480360360208110156104aa57600080fd5b810190808035906020019092919050505061145c565b005b3480156104ce57600080fd5b506104d761181d565b6040518082815260200191505060405180910390f35b3480156104f957600080fd5b506105266004803603602081101561051057600080fd5b8101908080359060200190929190505050611827565b005b34801561053457600080fd5b506105a16004803603606081101561054b57600080fd5b81019080803573ffffffffffffffffffffffffffffffffffffffff169060200190929190803573ffffffffffffffffffffffffffffffffffffffff16906020019092919080359060200190929190505050611ab3565b60405180821515815260200191505060405180910390f35b3480156105c557600080fd5b506105ce611e2e565b604051808260ff16815260200191505060405180910390f35b3480156105f357600080fd5b506105fc611e33565b005b34801561060a57600080fd5b506106376004803603602081101561062157600080fd5b8101908080359060200190929190505050611f06565b005b34801561064557600080fd5b506106726004803603602081101561065c57600080fd5b81019080803590602001909291905050506120ff565b604051808981526020018881526020018060200180602001806020018773ffffffffffffffffffffffffffffffffffffffff168152602001861515815260200185815260200184810384528a818151815260200191508051906020019080838360005b838110156106f05780820151818401526020810190506106d5565b50505050905090810190601f16801561071d5780820380516001836020036101000a031916815260200191505b50848103835289818151815260200191508051906020019080838360005b8381101561075657808201518184015260208101905061073b565b50505050905090810190601f1680156107835780820380516001836020036101000a031916815260200191505b50848103825288818151815260200191508051906020019080838360005b838110156107bc5780820151818401526020810190506107a1565b50505050905090810190601f1680156107e95780820380516001836020036101000a031916815260200191505b509b50505050505050505050505060405180910390f35b34801561080c57600080fd5b5061084f6004803603602081101561082357600080fd5b81019080803573ffffffffffffffffffffffffffffffffffffffff16906020019092919050505061233c565b6040518082815260200191505060405180910390f35b34801561087157600080fd5b5061089e6004803603602081101561088857600080fd5b8101908080359060200190929190505050612384565b604051808881526020018781526020018060200180602001806020018681526020018573ffffffffffffffffffffffffffffffffffffffff168152602001848103845289818151815260200191508051906020019080838360005b838110156109145780820151818401526020810190506108f9565b50505050905090810190601f1680156109415780820380516001836020036101000a031916815260200191505b50848103835288818151815260200191508051906020019080838360005b8381101561097a57808201518184015260208101905061095f565b50505050905090810190601f1680156109a75780820380516001836020036101000a031916815260200191505b50848103825287818151815260200191508051906020019080838360005b838110156109e05780820151818401526020810190506109c5565b50505050905090810190601f168015610a0d5780820380516001836020036101000a031916815260200191505b509a505050505050505050505060405180910390f35b348015610a2f57600080fd5b50610a6660048036036040811015610a4657600080fd5b8101908080359060200190929190803590602001909291905050506125ae565b005b610a9460048036036020811015610a7e57600080fd5b8101908080359060200190929190505050612cf1565b005b348015610aa257600080fd5b50610aab613109565b6040518080602001828103825283818151815260200191508051906020019080838360005b83811015610aeb578082015181840152602081019050610ad0565b50505050905090810190601f168015610b185780820380516001836020036101000a031916815260200191505b509250505060405180910390f35b348015610b3257600080fd5b50610b3b613142565b604051808273ffffffffffffffffffffffffffffffffffffffff16815260200191505060405180910390f35b610b6f613168565b005b348015610b7d57600080fd5b50610bca60048036036040811015610b9457600080fd5b81019080803573ffffffffffffffffffffffffffffffffffffffff169060200190929190803590602001909291905050506133cf565b60405180821515815260200191505060405180910390f35b348015610bee57600080fd5b50610df6600480360360c0811015610c0557600080fd5b8101908080359060200190640100000000811115610c2257600080fd5b820183602082011115610c3457600080fd5b80359060200191846001830284011164010000000083111715610c5657600080fd5b91908080601f016020809104026020016040519081016040528093929190818152602001838380828437600081840152601f19601f82011690508083019250505050505050919291929080359060200190640100000000811115610cb957600080fd5b820183602082011115610ccb57600080fd5b80359060200191846001830284011164010000000083111715610ced57600080fd5b91908080601f016020809104026020016040519081016040528093929190818152602001838380828437600081840152601f19601f82011690508083019250505050505050919291929080359060200190640100000000811115610d5057600080fd5b820183602082011115610d6257600080fd5b80359060200191846001830284011164010000000083111715610d8457600080fd5b91908080601f016020809104026020016040519081016040528093929190818152602001838380828437600081840152601f19601f82011690508083019250505050505050919291929080351515906020019092919080359060200190929190803590602001909291905050506135b1565b005b348015610e0457600080fd5b50610e0d6138a9565b005b348015610e1b57600080fd5b50610e24613911565b6040518082815260200191505060405180910390f35b348015610e4657600080fd5b50610e4f613917565b6040518082815260200191505060405180910390f35b348015610e7157600080fd5b50610e9e60048036036020811015610e8857600080fd5b8101908080359060200190929190505050613927565b005b348015610eac57600080fd5b50610f0f60048036036040811015610ec357600080fd5b81019080803573ffffffffffffffffffffffffffffffffffffffff169060200190929190803573ffffffffffffffffffffffffffffffffffffffff169060200190929190505050613ce8565b6040518082815260200191505060405180910390f35b348015610f3157600080fd5b50610f5e60048036036020811015610f4857600080fd5b8101908080359060200190929190505050613d6f565b6040518086815260200180602001806020018573ffffffffffffffffffffffffffffffffffffffff168152602001848152602001838103835287818151815260200191508051906020019080838360005b83811015610fca578082015181840152602081019050610faf565b50505050905090810190601f168015610ff75780820380516001836020036101000a031916815260200191505b50838103825286818151815260200191508051906020019080838360005b83811015611030578082015181840152602081019050611015565b50505050905090810190601f16801561105d5780820380516001836020036101000a031916815260200191505b5097505050505050505060405180910390f35b34801561107c57600080fd5b50611085613ef5565b6040518082815260200191505060405180910390f35b60085481565b6040518060400160405280600b81526020017f54726f766520546f6b656e00000000000000000000000000000000000000000081525081565b60008351116110e857600080fd5b60008251116110f657600080fd5b600073ffffffffffffffffffffffffffffffffffffffff163373ffffffffffffffffffffffffffffffffffffffff16141561113057600080fd5b600c600081548092919060010191905055506040518060a00160405280600c5481526020018481526020018381526020013373ffffffffffffffffffffffffffffffffffffffff16815260200182815250600d6000600c5481526020019081526020016000206000820151816000015560208201518160010190805190602001906111bc929190613f2e565b5060408201518160020190805190602001906111d9929190613f2e565b5060608201518160030160006101000a81548173ffffffffffffffffffffffffffffffffffffffff021916908373ffffffffffffffffffffffffffffffffffffffff160217905550608082015181600401559050507f2c44b862f4b4e08a26a765f9499900759a9ec95360a6f174d53163bd5d367f67600c548484336040518085815260200180602001806020018473ffffffffffffffffffffffffffffffffffffffff168152602001838103835286818151815260200191508051906020019080838360005b838110156112bb5780820151818401526020810190506112a0565b50505050905090810190601f1680156112e85780820380516001836020036101000a031916815260200191505b50838103825285818151815260200191508051906020019080838360005b83811015611321578082015181840152602081019050611306565b50505050905090810190601f16801561134e5780820380516001836020036101000a031916815260200191505b50965050505050505060405180910390a1505050565b60065481565b600081600160003373ffffffffffffffffffffffffffffffffffffffff1673ffffffffffffffffffffffffffffffffffffffff16815260200190815260200160002060008573ffffffffffffffffffffffffffffffffffffffff1673ffffffffffffffffffffffffffffffffffffffff168152602001908152602001600020819055508273ffffffffffffffffffffffffffffffffffffffff163373ffffffffffffffffffffffffffffffffffffffff167f8c5be1e5ebec7d5bd14f71427d1e84f3dd0314c0f7b2291e5b200ac8c7c3b925846040518082815260200191505060405180910390a36001905092915050565b60008111801561146e57506008548111155b61147757600080fd5b61147f613fae565b60096000838152602001908152602001600020604051806101000160405290816000820154815260200160018201548152602001600282018054600181600116156101000203166002900480601f01602080910402602001604051908101604052809291908181526020018280546001816001161561010002031660029004801561154b5780601f106115205761010080835404028352916020019161154b565b820191906000526020600020905b81548152906001019060200180831161152e57829003601f168201915b50505050508152602001600382018054600181600116156101000203166002900480601f0160208091040260200160405190810160405280929190818152602001828054600181600116156101000203166002900480156115ed5780601f106115c2576101008083540402835291602001916115ed565b820191906000526020600020905b8154815290600101906020018083116115d057829003601f168201915b50505050508152602001600482018054600181600116156101000203166002900480601f01602080910402602001604051908101604052809291908181526020018280546001816001161561010002031660029004801561168f5780601f106116645761010080835404028352916020019161168f565b820191906000526020600020905b81548152906001019060200180831161167257829003601f168201915b505050505081526020016005820160009054906101000a900473ffffffffffffffffffffffffffffffffffffffff1673ffffffffffffffffffffffffffffffffffffffff1673ffffffffffffffffffffffffffffffffffffffff1681526020016005820160149054906101000a900460ff16151515158152602001600682015481525050905060018160c001901515908115158152505080600960008481526020019081526020016000206000820151816000015560208201518160010155604082015181600201908051906020019061176a929190613f2e565b506060820151816003019080519060200190611787929190613f2e565b5060808201518160040190805190602001906117a4929190613f2e565b5060a08201518160050160006101000a81548173ffffffffffffffffffffffffffffffffffffffff021916908373ffffffffffffffffffffffffffffffffffffffff16021790555060c08201518160050160146101000a81548160ff02191690831515021790555060e082015181600601559050505050565b6000600254905090565b806118313361233c565b1015611888576040517f08c379a00000000000000000000000000000000000000000000000000000000081526004018080602001828103825260238152602001806140e66023913960400191505060405180910390fd5b806000803373ffffffffffffffffffffffffffffffffffffffff1673ffffffffffffffffffffffffffffffffffffffff16815260200190815260200160002054036000803373ffffffffffffffffffffffffffffffffffffffff1673ffffffffffffffffffffffffffffffffffffffff1681526020019081526020016000208190555080600080600360009054906101000a900473ffffffffffffffffffffffffffffffffffffffff1673ffffffffffffffffffffffffffffffffffffffff1673ffffffffffffffffffffffffffffffffffffffff1681526020019081526020016000205401600080600360009054906101000a900473ffffffffffffffffffffffffffffffffffffffff1673ffffffffffffffffffffffffffffffffffffffff1673ffffffffffffffffffffffffffffffffffffffff1681526020019081526020016000208190555060006004548202905080600560003373ffffffffffffffffffffffffffffffffffffffff1673ffffffffffffffffffffffffffffffffffffffff16815260200190815260200160002060008282540192505081905550600360009054906101000a900473ffffffffffffffffffffffffffffffffffffffff1673ffffffffffffffffffffffffffffffffffffffff163373ffffffffffffffffffffffffffffffffffffffff167fddf252ad1be2c89b69c2b068fc378daa952ba7f163c4a11628f55a4df523b3ef836040518082815260200191505060405180910390a35050565b60008060008573ffffffffffffffffffffffffffffffffffffffff1673ffffffffffffffffffffffffffffffffffffffff16815260200190815260200160002054821115611b0057600080fd5b600160008573ffffffffffffffffffffffffffffffffffffffff1673ffffffffffffffffffffffffffffffffffffffff16815260200190815260200160002060003373ffffffffffffffffffffffffffffffffffffffff1673ffffffffffffffffffffffffffffffffffffffff16815260200190815260200160002054821115611b8957600080fd5b611bda826000808773ffffffffffffffffffffffffffffffffffffffff1673ffffffffffffffffffffffffffffffffffffffff16815260200190815260200160002054613efb90919063ffffffff16565b6000808673ffffffffffffffffffffffffffffffffffffffff1673ffffffffffffffffffffffffffffffffffffffff16815260200190815260200160002081905550611cab82600160008773ffffffffffffffffffffffffffffffffffffffff1673ffffffffffffffffffffffffffffffffffffffff16815260200190815260200160002060003373ffffffffffffffffffffffffffffffffffffffff1673ffffffffffffffffffffffffffffffffffffffff16815260200190815260200160002054613efb90919063ffffffff16565b600160008673ffffffffffffffffffffffffffffffffffffffff1673ffffffffffffffffffffffffffffffffffffffff16815260200190815260200160002060003373ffffffffffffffffffffffffffffffffffffffff1673ffffffffffffffffffffffffffffffffffffffff16815260200190815260200160002081905550611d7c826000808673ffffffffffffffffffffffffffffffffffffffff1673ffffffffffffffffffffffffffffffffffffffff16815260200190815260200160002054613f1290919063ffffffff16565b6000808573ffffffffffffffffffffffffffffffffffffffff1673ffffffffffffffffffffffffffffffffffffffff168152602001908152602001600020819055508273ffffffffffffffffffffffffffffffffffffffff168473ffffffffffffffffffffffffffffffffffffffff167fddf252ad1be2c89b69c2b068fc378daa952ba7f163c4a11628f55a4df523b3ef846040518082815260200191505060405180910390a3600190509392505050565b601281565b6000600560003373ffffffffffffffffffffffffffffffffffffffff1673ffffffffffffffffffffffffffffffffffffffff1681526020019081526020016000205490503373ffffffffffffffffffffffffffffffffffffffff166108fc829081150290604051600060405180830381858888f19350505050158015611ebd573d6000803e3d6000fd5b506000600560003373ffffffffffffffffffffffffffffffffffffffff1673ffffffffffffffffffffffffffffffffffffffff1681526020019081526020016000208190555050565b611f0e61400b565b600d60008381526020019081526020016000206040518060a001604052908160008201548152602001600182018054600181600116156101000203166002900480601f016020809104026020016040519081016040528092919081815260200182805460018160011615610100020316600290048015611fcf5780601f10611fa457610100808354040283529160200191611fcf565b820191906000526020600020905b815481529060010190602001808311611fb257829003601f168201915b50505050508152602001600282018054600181600116156101000203166002900480601f0160208091040260200160405190810160405280929190818152602001828054600181600116156101000203166002900480156120715780601f1061204657610100808354040283529160200191612071565b820191906000526020600020905b81548152906001019060200180831161205457829003601f168201915b505050505081526020016003820160009054906101000a900473ffffffffffffffffffffffffffffffffffffffff1673ffffffffffffffffffffffffffffffffffffffff1673ffffffffffffffffffffffffffffffffffffffff16815260200160048201548152505090506000816060015190506000826080015190506120f882826133cf565b5050505050565b6009602052806000526040600020600091509050806000015490806001015490806002018054600181600116156101000203166002900480601f0160208091040260200160405190810160405280929190818152602001828054600181600116156101000203166002900480156121b75780601f1061218c576101008083540402835291602001916121b7565b820191906000526020600020905b81548152906001019060200180831161219a57829003601f168201915b505050505090806003018054600181600116156101000203166002900480601f0160208091040260200160405190810160405280929190818152602001828054600181600116156101000203166002900480156122555780601f1061222a57610100808354040283529160200191612255565b820191906000526020600020905b81548152906001019060200180831161223857829003601f168201915b505050505090806004018054600181600116156101000203166002900480601f0160208091040260200160405190810160405280929190818152602001828054600181600116156101000203166002900480156122f35780601f106122c8576101008083540402835291602001916122f3565b820191906000526020600020905b8154815290600101906020018083116122d657829003601f168201915b5050505050908060050160009054906101000a900473ffffffffffffffffffffffffffffffffffffffff16908060050160149054906101000a900460ff16908060060154905088565b60008060008373ffffffffffffffffffffffffffffffffffffffff1673ffffffffffffffffffffffffffffffffffffffff168152602001908152602001600020549050919050565b600b602052806000526040600020600091509050806000015490806001015490806002018054600181600116156101000203166002900480601f01602080910402602001604051908101604052809291908181526020018280546001816001161561010002031660029004801561243c5780601f106124115761010080835404028352916020019161243c565b820191906000526020600020905b81548152906001019060200180831161241f57829003601f168201915b505050505090806003018054600181600116156101000203166002900480601f0160208091040260200160405190810160405280929190818152602001828054600181600116156101000203166002900480156124da5780601f106124af576101008083540402835291602001916124da565b820191906000526020600020905b8154815290600101906020018083116124bd57829003601f168201915b505050505090806004018054600181600116156101000203166002900480601f0160208091040260200160405190810160405280929190818152602001828054600181600116156101000203166002900480156125785780601f1061254d57610100808354040283529160200191612578565b820191906000526020600020905b81548152906001019060200180831161255b57829003601f168201915b5050505050908060050154908060060160009054906101000a900473ffffffffffffffffffffffffffffffffffffffff16905087565b6000821180156125c05750600a548211155b80156125cc5750600081115b80156125da57506008548111155b6125e357600080fd5b6125eb613fae565b60096000838152602001908152602001600020604051806101000160405290816000820154815260200160018201548152602001600282018054600181600116156101000203166002900480601f0160208091040260200160405190810160405280929190818152602001828054600181600116156101000203166002900480156126b75780601f1061268c576101008083540402835291602001916126b7565b820191906000526020600020905b81548152906001019060200180831161269a57829003601f168201915b50505050508152602001600382018054600181600116156101000203166002900480601f0160208091040260200160405190810160405280929190818152602001828054600181600116156101000203166002900480156127595780601f1061272e57610100808354040283529160200191612759565b820191906000526020600020905b81548152906001019060200180831161273c57829003601f168201915b50505050508152602001600482018054600181600116156101000203166002900480601f0160208091040260200160405190810160405280929190818152602001828054600181600116156101000203166002900480156127fb5780601f106127d0576101008083540402835291602001916127fb565b820191906000526020600020905b8154815290600101906020018083116127de57829003601f168201915b505050505081526020016005820160009054906101000a900473ffffffffffffffffffffffffffffffffffffffff1673ffffffffffffffffffffffffffffffffffffffff1673ffffffffffffffffffffffffffffffffffffffff1681526020016005820160149054906101000a900460ff16151515158152602001600682015481525050905060018160200151018160200181815250508060096000848152602001908152602001600020600082015181600001556020820151816001015560408201518160020190805190602001906128d6929190613f2e565b5060608201518160030190805190602001906128f3929190613f2e565b506080820151816004019080519060200190612910929190613f2e565b5060a08201518160050160006101000a81548173ffffffffffffffffffffffffffffffffffffffff021916908373ffffffffffffffffffffffffffffffffffffffff16021790555060c08201518160050160146101000a81548160ff02191690831515021790555060e0820151816006015590505061298d614050565b600b60008581526020019081526020016000206040518060e00160405290816000820154815260200160018201548152602001600282018054600181600116156101000203166002900480601f016020809104026020016040519081016040528092919081815260200182805460018160011615610100020316600290048015612a585780601f10612a2d57610100808354040283529160200191612a58565b820191906000526020600020905b815481529060010190602001808311612a3b57829003601f168201915b50505050508152602001600382018054600181600116156101000203166002900480601f016020809104026020016040519081016040528092919081815260200182805460018160011615610100020316600290048015612afa5780601f10612acf57610100808354040283529160200191612afa565b820191906000526020600020905b815481529060010190602001808311612add57829003601f168201915b50505050508152602001600482018054600181600116156101000203166002900480601f016020809104026020016040519081016040528092919081815260200182805460018160011615610100020316600290048015612b9c5780601f10612b7157610100808354040283529160200191612b9c565b820191906000526020600020905b815481529060010190602001808311612b7f57829003601f168201915b50505050508152602001600582015481526020016006820160009054906101000a900473ffffffffffffffffffffffffffffffffffffffff1673ffffffffffffffffffffffffffffffffffffffff1673ffffffffffffffffffffffffffffffffffffffff16815250509050600181602001510181602001818152505080600b600086815260200190815260200160002060008201518160000155602082015181600101556040820151816002019080519060200190612c5c929190613f2e565b506060820151816003019080519060200190612c79929190613f2e565b506080820151816004019080519060200190612c96929190613f2e565b5060a0820151816005015560c08201518160060160006101000a81548173ffffffffffffffffffffffffffffffffffffffff021916908373ffffffffffffffffffffffffffffffffffffffff16021790555090505050505050565b600081118015612d0357506008548111155b612d0c57600080fd5b612d14613fae565b60096000838152602001908152602001600020604051806101000160405290816000820154815260200160018201548152602001600282018054600181600116156101000203166002900480601f016020809104026020016040519081016040528092919081815260200182805460018160011615610100020316600290048015612de05780601f10612db557610100808354040283529160200191612de0565b820191906000526020600020905b815481529060010190602001808311612dc357829003601f168201915b50505050508152602001600382018054600181600116156101000203166002900480601f016020809104026020016040519081016040528092919081815260200182805460018160011615610100020316600290048015612e825780601f10612e5757610100808354040283529160200191612e82565b820191906000526020600020905b815481529060010190602001808311612e6557829003601f168201915b50505050508152602001600482018054600181600116156101000203166002900480601f016020809104026020016040519081016040528092919081815260200182805460018160011615610100020316600290048015612f245780601f10612ef957610100808354040283529160200191612f24565b820191906000526020600020905b815481529060010190602001808311612f0757829003601f168201915b505050505081526020016005820160009054906101000a900473ffffffffffffffffffffffffffffffffffffffff1673ffffffffffffffffffffffffffffffffffffffff1673ffffffffffffffffffffffffffffffffffffffff1681526020016005820160149054906101000a900460ff16151515158152602001600682015481525050905060008160a00151905060008260e001519050612fc682826133cf565b50338360a0019073ffffffffffffffffffffffffffffffffffffffff16908173ffffffffffffffffffffffffffffffffffffffff168152505060008360c0019015159081151581525050826009600086815260200190815260200160002060008201518160000155602082015181600101556040820151816002019080519060200190613054929190613f2e565b506060820151816003019080519060200190613071929190613f2e565b50608082015181600401908051906020019061308e929190613f2e565b5060a08201518160050160006101000a81548173ffffffffffffffffffffffffffffffffffffffff021916908373ffffffffffffffffffffffffffffffffffffffff16021790555060c08201518160050160146101000a81548160ff02191690831515021790555060e0820151816006015590505050505050565b6040518060400160405280600281526020017f545400000000000000000000000000000000000000000000000000000000000081525081565b600360009054906101000a900473ffffffffffffffffffffffffffffffffffffffff1681565b6000600454348161317557fe5b049050806131a4600360009054906101000a900473ffffffffffffffffffffffffffffffffffffffff1661233c565b10156131fb576040517f08c379a00000000000000000000000000000000000000000000000000000000081526004018080602001828103825260258152602001806140c16025913960400191505060405180910390fd5b806000803373ffffffffffffffffffffffffffffffffffffffff1673ffffffffffffffffffffffffffffffffffffffff16815260200190815260200160002054016000803373ffffffffffffffffffffffffffffffffffffffff1673ffffffffffffffffffffffffffffffffffffffff1681526020019081526020016000208190555080600080600360009054906101000a900473ffffffffffffffffffffffffffffffffffffffff1673ffffffffffffffffffffffffffffffffffffffff1673ffffffffffffffffffffffffffffffffffffffff1681526020019081526020016000205403600080600360009054906101000a900473ffffffffffffffffffffffffffffffffffffffff1673ffffffffffffffffffffffffffffffffffffffff1673ffffffffffffffffffffffffffffffffffffffff168152602001908152602001600020819055503373ffffffffffffffffffffffffffffffffffffffff16600360009054906101000a900473ffffffffffffffffffffffffffffffffffffffff1673ffffffffffffffffffffffffffffffffffffffff167fddf252ad1be2c89b69c2b068fc378daa952ba7f163c4a11628f55a4df523b3ef836040518082815260200191505060405180910390a350565b60008060003373ffffffffffffffffffffffffffffffffffffffff1673ffffffffffffffffffffffffffffffffffffffff1681526020019081526020016000205482111561341c57600080fd5b61346d826000803373ffffffffffffffffffffffffffffffffffffffff1673ffffffffffffffffffffffffffffffffffffffff16815260200190815260200160002054613efb90919063ffffffff16565b6000803373ffffffffffffffffffffffffffffffffffffffff1673ffffffffffffffffffffffffffffffffffffffff16815260200190815260200160002081905550613500826000808673ffffffffffffffffffffffffffffffffffffffff1673ffffffffffffffffffffffffffffffffffffffff16815260200190815260200160002054613f1290919063ffffffff16565b6000808573ffffffffffffffffffffffffffffffffffffffff1673ffffffffffffffffffffffffffffffffffffffff168152602001908152602001600020819055508273ffffffffffffffffffffffffffffffffffffffff163373ffffffffffffffffffffffffffffffffffffffff167fddf252ad1be2c89b69c2b068fc378daa952ba7f163c4a11628f55a4df523b3ef846040518082815260200191505060405180910390a36001905092915050565b60008651116135bf57600080fd5b60008451116135cd57600080fd5b600073ffffffffffffffffffffffffffffffffffffffff163373ffffffffffffffffffffffffffffffffffffffff16141561360757600080fd5b821561376e576008600081548092919060010191905055506040518061010001604052806008548152602001600081526020018781526020018681526020018581526020013373ffffffffffffffffffffffffffffffffffffffff16815260200160011515815260200183815250600960006008548152602001908152602001600020600082015181600001556020820151816001015560408201518160020190805190602001906136ba929190613f2e565b5060608201518160030190805190602001906136d7929190613f2e565b5060808201518160040190805190602001906136f4929190613f2e565b5060a08201518160050160006101000a81548173ffffffffffffffffffffffffffffffffffffffff021916908373ffffffffffffffffffffffffffffffffffffffff16021790555060c08201518160050160146101000a81548160ff02191690831515021790555060e082015181600601559050506138a1565b600a600081548092919060010191905055506040518060e00160405280600a548152602001600081526020018781526020018681526020018581526020018281526020013373ffffffffffffffffffffffffffffffffffffffff16815250600b6000600a54815260200190815260200160002060008201518160000155602082015181600101556040820151816002019080519060200190613811929190613f2e565b50606082015181600301908051906020019061382e929190613f2e565b50608082015181600401908051906020019061384b929190613f2e565b5060a0820151816005015560c08201518160060160006101000a81548173ffffffffffffffffffffffffffffffffffffffff021916908373ffffffffffffffffffffffffffffffffffffffff1602179055509050505b505050505050565b6006600081548092919060010191905055503360076000600654815260200190815260200160002060006101000a81548173ffffffffffffffffffffffffffffffffffffffff021916908373ffffffffffffffffffffffffffffffffffffffff160217905550565b600c5481565b60006139223361233c565b905090565b60008111801561393957506008548111155b61394257600080fd5b61394a613fae565b60096000838152602001908152602001600020604051806101000160405290816000820154815260200160018201548152602001600282018054600181600116156101000203166002900480601f016020809104026020016040519081016040528092919081815260200182805460018160011615610100020316600290048015613a165780601f106139eb57610100808354040283529160200191613a16565b820191906000526020600020905b8154815290600101906020018083116139f957829003601f168201915b50505050508152602001600382018054600181600116156101000203166002900480601f016020809104026020016040519081016040528092919081815260200182805460018160011615610100020316600290048015613ab85780601f10613a8d57610100808354040283529160200191613ab8565b820191906000526020600020905b815481529060010190602001808311613a9b57829003601f168201915b50505050508152602001600482018054600181600116156101000203166002900480601f016020809104026020016040519081016040528092919081815260200182805460018160011615610100020316600290048015613b5a5780601f10613b2f57610100808354040283529160200191613b5a565b820191906000526020600020905b815481529060010190602001808311613b3d57829003601f168201915b505050505081526020016005820160009054906101000a900473ffffffffffffffffffffffffffffffffffffffff1673ffffffffffffffffffffffffffffffffffffffff1673ffffffffffffffffffffffffffffffffffffffff1681526020016005820160149054906101000a900460ff1615151515815260200160068201548152505090506001816020015101816020018181525050806009600084815260200190815260200160002060008201518160000155602082015181600101556040820151816002019080519060200190613c35929190613f2e565b506060820151816003019080519060200190613c52929190613f2e565b506080820151816004019080519060200190613c6f929190613f2e565b5060a08201518160050160006101000a81548173ffffffffffffffffffffffffffffffffffffffff021916908373ffffffffffffffffffffffffffffffffffffffff16021790555060c08201518160050160146101000a81548160ff02191690831515021790555060e082015181600601559050505050565b6000600160008473ffffffffffffffffffffffffffffffffffffffff1673ffffffffffffffffffffffffffffffffffffffff16815260200190815260200160002060008373ffffffffffffffffffffffffffffffffffffffff1673ffffffffffffffffffffffffffffffffffffffff16815260200190815260200160002054905092915050565b600d602052806000526040600020600091509050806000015490806001018054600181600116156101000203166002900480601f016020809104026020016040519081016040528092919081815260200182805460018160011615610100020316600290048015613e215780601f10613df657610100808354040283529160200191613e21565b820191906000526020600020905b815481529060010190602001808311613e0457829003601f168201915b505050505090806002018054600181600116156101000203166002900480601f016020809104026020016040519081016040528092919081815260200182805460018160011615610100020316600290048015613ebf5780601f10613e9457610100808354040283529160200191613ebf565b820191906000526020600020905b815481529060010190602001808311613ea257829003601f168201915b5050505050908060030160009054906101000a900473ffffffffffffffffffffffffffffffffffffffff16908060040154905085565b600a5481565b600082821115613f0757fe5b818303905092915050565b600080828401905083811015613f2457fe5b8091505092915050565b828054600181600116156101000203166002900490600052602060002090601f016020900481019282601f10613f6f57805160ff1916838001178555613f9d565b82800160010185558215613f9d579182015b82811115613f9c578251825591602001919060010190613f81565b5b509050613faa91906140a3565b5090565b6040518061010001604052806000815260200160008152602001606081526020016060815260200160608152602001600073ffffffffffffffffffffffffffffffffffffffff168152602001600015158152602001600081525090565b6040518060a00160405280600081526020016060815260200160608152602001600073ffffffffffffffffffffffffffffffffffffffff168152602001600081525090565b6040518060e00160405280600081526020016000815260200160608152602001606081526020016060815260200160008152602001600073ffffffffffffffffffffffffffffffffffffffff1681525090565b5b808211156140bc5760008160009055506001016140a4565b509056fe436f6e747261637420646f6573206e6f74206861766520656e6f75676820746f6b656e732e53656c6c657220646f6573206e6f74206861766520656e6f75676820746f6b656e732ea2646970667358221220f403280987f70e8e4eca32d3e7ada3aa7c71b5bf5081b49c197606b11368e81a64736f6c634300060c0033",
  "immutableReferences": {},
  "source": "// SPDX-License-Identifier: GPL-3.0\r\n\r\npragma solidity ^0.6.0;\r\n\r\nimport \"./TroveCoin.sol\";\r\n\r\ncontract TroveIt is TroveCoin{\r\n    \r\n    \r\n    /**********************************************************************\r\n                        Trove Token : Data Variables\r\n    **********************************************************************/\r\n    \r\n    address public tokenAddress;\r\n    \r\n    constructor() public {\r\n        tokenAddress = msg.sender;\r\n    }\r\n    \r\n    uint256 private _sellPrice = 10**17; // 0.1 ether per token\r\n    \r\n    mapping (address => uint) private _pendingWithdrawals;\r\n    \r\n    /**********************************************************************\r\n                        SignUp : Data Variables\r\n    **********************************************************************/    \r\n    \r\n    uint256 public userCount = 0;\r\n    mapping(uint => address) private _users;\r\n    \r\n    /**********************************************************************\r\n                        MarketPlace : Data Variables\r\n    **********************************************************************/\r\n    \r\n    uint256 public originalPostCount = 0;\r\n    \r\n    mapping(uint256 => OriginalPost) public originalPosts;\r\n    \r\n    struct OriginalPost {\r\n        uint256 id;\r\n        uint256 likes;\r\n        string hash;\r\n        string phash;\r\n        string caption;\r\n        address payable owner;\r\n        bool martketplace;\r\n        uint256 price;\r\n    }\r\n    \r\n    /**********************************************************************\r\n                        Feed : Data Variables\r\n    **********************************************************************/\r\n    \r\n    uint256 public feedPostCount = 0;\r\n    \r\n    mapping(uint256 => FeedPost) public feedPosts;\r\n    \r\n    struct FeedPost {\r\n        uint256 id;\r\n        uint256 likes;\r\n        string hash;\r\n        string phash;\r\n        string caption;\r\n        uint256 originalId;\r\n        address payable owner;\r\n    }\r\n    \r\n    /**********************************************************************\r\n                        D-Reels : Data Variables\r\n    **********************************************************************/   \r\n    \r\n    uint public videoCount = 0;\r\n    \r\n    mapping(uint => Video) public videos;\r\n\r\n    struct Video {\r\n        uint id;\r\n        string hash;\r\n        string title;\r\n        address payable author;\r\n        uint256 price; \r\n    }\r\n\r\n    event VideoUploaded(\r\n        uint id,\r\n        string hash,\r\n        string title,\r\n        address payable author\r\n    );\r\n    \r\n    /**********************************************************************\r\n                        Trove Token : Functions\r\n    **********************************************************************/\r\n    \r\n    // 1. Buy token\r\n    function buyToken() public payable{\r\n        uint256 amount = msg.value/_sellPrice;\r\n        require(balanceOf(tokenAddress) >= amount, \"Contract does not have enough tokens.\");\r\n        balances[msg.sender] = balances[msg.sender] + amount;\r\n        balances[tokenAddress] = balances[tokenAddress] - amount;\r\n        emit Transfer(tokenAddress, msg.sender, amount);\r\n    }\r\n    \r\n    // 2. Sell token\r\n    function sellToken(uint256 amount) public {\r\n        require(balanceOf(msg.sender) >= amount, \"Seller does not have enough tokens.\");\r\n        balances[msg.sender] = balances[msg.sender] - amount;\r\n        balances[tokenAddress] = balances[tokenAddress] + amount;\r\n        uint256 tokenPrice = amount * _sellPrice;\r\n        _pendingWithdrawals[msg.sender] += tokenPrice;\r\n        emit Transfer(msg.sender, tokenAddress, tokenPrice);\r\n    }\r\n    \r\n    // 3. Check Balance\r\n    function checkBalance() public view returns(uint256){\r\n        return balanceOf(msg.sender);\r\n    }\r\n    \r\n    // 4. Withdraw ethers\r\n    function withdraw() public {\r\n        uint amount = _pendingWithdrawals[msg.sender];\r\n        msg.sender.transfer(amount);\r\n        _pendingWithdrawals[msg.sender] = 0;\r\n    }\r\n    \r\n    /**********************************************************************\r\n                        SignUp : Functions\r\n    **********************************************************************/\r\n    \r\n    //1. SignUp\r\n    function signUp() public {\r\n        userCount++;\r\n        _users[userCount] = msg.sender;\r\n    }\r\n    \r\n    /**********************************************************************\r\n                        MarketPlace & Feeds: Functions\r\n    **********************************************************************/\r\n    \r\n    //1. Upload Post \r\n    function uploadPost(string memory _postHash, string memory _phash, string memory _caption, bool _original, uint256 _price, uint256 _originalId) public {\r\n        // Make sure the post hash exists\r\n        require(bytes(_postHash).length > 0);\r\n        // Make sure post caption exists\r\n        require(bytes(_caption).length > 0);\r\n        // Make sure uploader address exists\r\n        require(msg.sender!=address(0));\r\n    \r\n        if(_original){\r\n            // Increment originalPost id\r\n            originalPostCount ++;\r\n        \r\n            // Add Post to the contract\r\n            originalPosts[originalPostCount] = OriginalPost(originalPostCount, 0, _postHash, _phash,_caption, msg.sender, true, _price);            \r\n        }else{\r\n            // Increment originalPost id\r\n            feedPostCount ++;\r\n        \r\n            // Add Post to the contract\r\n            feedPosts[feedPostCount] = FeedPost(feedPostCount, 0, _postHash, _phash,_caption, _originalId, msg.sender);            \r\n        }\r\n\r\n    }\r\n    \r\n    //2. Like Original Post\r\n    function likeOriginalPost(uint256 _postId) public {\r\n        // Make sure the id is valid\r\n        require(_postId > 0 && _postId <= originalPostCount);\r\n        \r\n        // Fetch the Post\r\n        OriginalPost memory _post = originalPosts[_postId];\r\n        // Increment Like\r\n        _post.likes = _post.likes + 1;\r\n        \r\n        // Update the Post\r\n        originalPosts[_postId] = _post;\r\n    }\r\n\r\n    //3. Like Feed Post\r\n    function likeFeedPost(uint256 _feedpostId, uint256 _originalpostId) public {\r\n        // Make sure the post id are valid\r\n        require(_feedpostId > 0 && _feedpostId <= feedPostCount && _originalpostId > 0 && _originalpostId <= originalPostCount);\r\n        \r\n        // Fetch the Original Post\r\n        OriginalPost memory _originalpost = originalPosts[_originalpostId];\r\n        \r\n        // Increment Like\r\n        _originalpost.likes = _originalpost.likes + 1;\r\n        \r\n        // Update the Original Post\r\n        originalPosts[_originalpostId] = _originalpost;\r\n        \r\n        // Fetch the Feed Post\r\n        FeedPost memory _feedpost = feedPosts[_feedpostId];\r\n        \r\n        // Increment Like\r\n        _feedpost.likes = _feedpost.likes + 1;\r\n        \r\n        // Update the Original Post\r\n        feedPosts[_feedpostId] = _feedpost;        \r\n        \r\n    }\r\n    \r\n    //4. Buy a Post - Change the owner and transfer tokens  \r\n    function changeOwner(uint256 _postId) public payable{\r\n    \r\n        // Make sure the id is valid\r\n        require(_postId > 0 && _postId <= originalPostCount);\r\n      \r\n        // Fetch the Post\r\n        OriginalPost memory _post = originalPosts[_postId];\r\n        address payable _owner = _post.owner;\r\n        //Fetch the price\r\n        uint256 price = _post.price;\r\n        \r\n        // Pay the author by sending them trove token\r\n        transfer(_owner, price);\r\n        \r\n        // Change Owner\r\n        _post.owner = msg.sender;\r\n        \r\n        //Remove from martketplace\r\n        _post.martketplace = false;\r\n        \r\n        // Update the Post\r\n        originalPosts[_postId] = _post;\r\n    \r\n    }  \r\n\r\n    //5. Repost on Marketplace\r\n    function repost(uint256 _postId) public {\r\n        // Make sure the id is valid\r\n        require(_postId > 0 && _postId <= originalPostCount);\r\n        \r\n        // Fetch the Post\r\n        OriginalPost memory _post = originalPosts[_postId];\r\n        \r\n        // Add to martketplace\r\n        _post.martketplace = true;\r\n        \r\n        // Update the Post\r\n        originalPosts[_postId] = _post;\r\n    }\r\n    \r\n    /**********************************************************************\r\n                        D-Reels : Functions\r\n    **********************************************************************/   \r\n    \r\n    //1. Upload your video\r\n    function uploadVideo(string memory _videoHash, string memory _title, uint256 _price) public {\r\n        // Make sure the video hash exists\r\n        require(bytes(_videoHash).length > 0);\r\n        // Make sure video title exists\r\n        require(bytes(_title).length > 0);\r\n        // Make sure uploader address exists\r\n        require(msg.sender!=address(0));\r\n    \r\n        // Increment video id\r\n        videoCount ++;\r\n    \r\n        // Add video to the contract\r\n        videos[videoCount] = Video(videoCount, _videoHash, _title, msg.sender, _price);\r\n        // Trigger an event\r\n        emit VideoUploaded(videoCount, _videoHash, _title, msg.sender);\r\n    }\r\n  \r\n    //2. Pay with Trove Tokens to watch Video\r\n    function watchVideo(uint256 _id) public {\r\n      //Fetch the video\r\n      Video memory _video = videos[_id];\r\n      address payable _author = _video.author;\r\n      uint256 price = _video.price;\r\n        \r\n      // transfer tokens from callers to mentioned account\r\n      transfer(_author, price);\r\n    }\r\n    \r\n}",
  "sourcePath": "C:/Users/Rishikesh Kale/TroveIT/src/contracts/TroveIt.sol",
  "compiler": {
    "name": "solc",
    "version": "0.6.12+commit.27d51765.Emscripten.clang"
  },
  "schemaVersion": "3.3.4",
  "updatedAt": "2021-07-01T12:02:45.142Z",
  "networkType": "ethereum",
  "devdoc": {
    "kind": "dev",
    "methods": {},
    "version": 1
  },
  "userdoc": {
    "kind": "user",
    "methods": {},
    "version": 1
  }
}