{
  "contractName": "TroveIt",
  "abi": [
    {
      "inputs": [],
      "stateMutability": "nonpayable",
      "type": "constructor"
    },
    {
      "anonymous": false,
      "inputs": [
        {
          "indexed": true,
          "internalType": "address",
          "name": "tokenOwner",
          "type": "address"
        },
        {
          "indexed": true,
          "internalType": "address",
          "name": "spender",
          "type": "address"
        },
        {
          "indexed": false,
          "internalType": "uint256",
          "name": "tokens",
          "type": "uint256"
        }
      ],
      "name": "Approval",
      "type": "event"
    },
    {
      "anonymous": false,
      "inputs": [
        {
          "indexed": true,
          "internalType": "address",
          "name": "from",
          "type": "address"
        },
        {
          "indexed": true,
          "internalType": "address",
          "name": "to",
          "type": "address"
        },
        {
          "indexed": false,
          "internalType": "uint256",
          "name": "tokens",
          "type": "uint256"
        }
      ],
      "name": "Transfer",
      "type": "event"
    },
    {
      "anonymous": false,
      "inputs": [
        {
          "indexed": false,
          "internalType": "uint256",
          "name": "id",
          "type": "uint256"
        },
        {
          "indexed": false,
          "internalType": "string",
          "name": "hash",
          "type": "string"
        },
        {
          "indexed": false,
          "internalType": "string",
          "name": "title",
          "type": "string"
        },
        {
          "indexed": false,
          "internalType": "address payable",
          "name": "author",
          "type": "address"
        }
      ],
      "name": "VideoUploaded",
      "type": "event"
    },
    {
      "inputs": [
        {
          "internalType": "address",
          "name": "owner",
          "type": "address"
        },
        {
          "internalType": "address",
          "name": "delegate",
          "type": "address"
        }
      ],
      "name": "allowance",
      "outputs": [
        {
          "internalType": "uint256",
          "name": "",
          "type": "uint256"
        }
      ],
      "stateMutability": "view",
      "type": "function",
      "constant": true
    },
    {
      "inputs": [
        {
          "internalType": "address",
          "name": "delegate",
          "type": "address"
        },
        {
          "internalType": "uint256",
          "name": "numTokens",
          "type": "uint256"
        }
      ],
      "name": "approve",
      "outputs": [
        {
          "internalType": "bool",
          "name": "",
          "type": "bool"
        }
      ],
      "stateMutability": "nonpayable",
      "type": "function"
    },
    {
      "inputs": [
        {
          "internalType": "address",
          "name": "tokenOwner",
          "type": "address"
        }
      ],
      "name": "balanceOf",
      "outputs": [
        {
          "internalType": "uint256",
          "name": "",
          "type": "uint256"
        }
      ],
      "stateMutability": "view",
      "type": "function",
      "constant": true
    },
    {
      "inputs": [],
      "name": "decimals",
      "outputs": [
        {
          "internalType": "uint8",
          "name": "",
          "type": "uint8"
        }
      ],
      "stateMutability": "view",
      "type": "function",
      "constant": true
    },
    {
      "inputs": [],
      "name": "feedPostCount",
      "outputs": [
        {
          "internalType": "uint256",
          "name": "",
          "type": "uint256"
        }
      ],
      "stateMutability": "view",
      "type": "function",
      "constant": true
    },
    {
      "inputs": [
        {
          "internalType": "uint256",
          "name": "",
          "type": "uint256"
        }
      ],
      "name": "feedPosts",
      "outputs": [
        {
          "internalType": "uint256",
          "name": "id",
          "type": "uint256"
        },
        {
          "internalType": "uint256",
          "name": "likes",
          "type": "uint256"
        },
        {
          "internalType": "string",
          "name": "hash",
          "type": "string"
        },
        {
          "internalType": "string",
          "name": "phash",
          "type": "string"
        },
        {
          "internalType": "string",
          "name": "caption",
          "type": "string"
        },
        {
          "internalType": "uint256",
          "name": "originalId",
          "type": "uint256"
        },
        {
          "internalType": "address payable",
          "name": "originalOwner",
          "type": "address"
        },
        {
          "internalType": "address payable",
          "name": "owner",
          "type": "address"
        }
      ],
      "stateMutability": "view",
      "type": "function",
      "constant": true
    },
    {
      "inputs": [],
      "name": "name",
      "outputs": [
        {
          "internalType": "string",
          "name": "",
          "type": "string"
        }
      ],
      "stateMutability": "view",
      "type": "function",
      "constant": true
    },
    {
      "inputs": [],
      "name": "originalPostCount",
      "outputs": [
        {
          "internalType": "uint256",
          "name": "",
          "type": "uint256"
        }
      ],
      "stateMutability": "view",
      "type": "function",
      "constant": true
    },
    {
      "inputs": [
        {
          "internalType": "uint256",
          "name": "",
          "type": "uint256"
        }
      ],
      "name": "originalPosts",
      "outputs": [
        {
          "internalType": "uint256",
          "name": "id",
          "type": "uint256"
        },
        {
          "internalType": "uint256",
          "name": "likes",
          "type": "uint256"
        },
        {
          "internalType": "string",
          "name": "hash",
          "type": "string"
        },
        {
          "internalType": "string",
          "name": "phash",
          "type": "string"
        },
        {
          "internalType": "string",
          "name": "caption",
          "type": "string"
        },
        {
          "internalType": "address payable",
          "name": "owner",
          "type": "address"
        },
        {
          "internalType": "bool",
          "name": "martketplace",
          "type": "bool"
        },
        {
          "internalType": "uint256",
          "name": "price",
          "type": "uint256"
        }
      ],
      "stateMutability": "view",
      "type": "function",
      "constant": true
    },
    {
      "inputs": [],
      "name": "symbol",
      "outputs": [
        {
          "internalType": "string",
          "name": "",
          "type": "string"
        }
      ],
      "stateMutability": "view",
      "type": "function",
      "constant": true
    },
    {
      "inputs": [],
      "name": "tokenAddress",
      "outputs": [
        {
          "internalType": "address",
          "name": "",
          "type": "address"
        }
      ],
      "stateMutability": "view",
      "type": "function",
      "constant": true
    },
    {
      "inputs": [],
      "name": "totalSupply",
      "outputs": [
        {
          "internalType": "uint256",
          "name": "",
          "type": "uint256"
        }
      ],
      "stateMutability": "view",
      "type": "function",
      "constant": true
    },
    {
      "inputs": [
        {
          "internalType": "address",
          "name": "receiver",
          "type": "address"
        },
        {
          "internalType": "uint256",
          "name": "numTokens",
          "type": "uint256"
        }
      ],
      "name": "transfer",
      "outputs": [
        {
          "internalType": "bool",
          "name": "",
          "type": "bool"
        }
      ],
      "stateMutability": "nonpayable",
      "type": "function"
    },
    {
      "inputs": [
        {
          "internalType": "address",
          "name": "owner",
          "type": "address"
        },
        {
          "internalType": "address",
          "name": "buyer",
          "type": "address"
        },
        {
          "internalType": "uint256",
          "name": "numTokens",
          "type": "uint256"
        }
      ],
      "name": "transferFrom",
      "outputs": [
        {
          "internalType": "bool",
          "name": "",
          "type": "bool"
        }
      ],
      "stateMutability": "nonpayable",
      "type": "function"
    },
    {
      "inputs": [],
      "name": "userCount",
      "outputs": [
        {
          "internalType": "uint256",
          "name": "",
          "type": "uint256"
        }
      ],
      "stateMutability": "view",
      "type": "function",
      "constant": true
    },
    {
      "inputs": [],
      "name": "videoCount",
      "outputs": [
        {
          "internalType": "uint256",
          "name": "",
          "type": "uint256"
        }
      ],
      "stateMutability": "view",
      "type": "function",
      "constant": true
    },
    {
      "inputs": [
        {
          "internalType": "uint256",
          "name": "",
          "type": "uint256"
        }
      ],
      "name": "videos",
      "outputs": [
        {
          "internalType": "uint256",
          "name": "id",
          "type": "uint256"
        },
        {
          "internalType": "string",
          "name": "hash",
          "type": "string"
        },
        {
          "internalType": "string",
          "name": "title",
          "type": "string"
        },
        {
          "internalType": "address payable",
          "name": "author",
          "type": "address"
        },
        {
          "internalType": "uint256",
          "name": "price",
          "type": "uint256"
        }
      ],
      "stateMutability": "view",
      "type": "function",
      "constant": true
    },
    {
      "inputs": [],
      "name": "buyToken",
      "outputs": [],
      "stateMutability": "payable",
      "type": "function",
      "payable": true
    },
    {
      "inputs": [
        {
          "internalType": "uint256",
          "name": "amount",
          "type": "uint256"
        }
      ],
      "name": "sellToken",
      "outputs": [],
      "stateMutability": "nonpayable",
      "type": "function"
    },
    {
      "inputs": [],
      "name": "checkBalance",
      "outputs": [
        {
          "internalType": "uint256",
          "name": "",
          "type": "uint256"
        }
      ],
      "stateMutability": "view",
      "type": "function",
      "constant": true
    },
    {
      "inputs": [],
      "name": "withdraw",
      "outputs": [],
      "stateMutability": "nonpayable",
      "type": "function"
    },
    {
      "inputs": [],
      "name": "signUp",
      "outputs": [],
      "stateMutability": "nonpayable",
      "type": "function"
    },
    {
      "inputs": [
        {
          "internalType": "string",
          "name": "_postHash",
          "type": "string"
        },
        {
          "internalType": "string",
          "name": "_phash",
          "type": "string"
        },
        {
          "internalType": "string",
          "name": "_caption",
          "type": "string"
        },
        {
          "internalType": "bool",
          "name": "_original",
          "type": "bool"
        },
        {
          "internalType": "uint256",
          "name": "_price",
          "type": "uint256"
        },
        {
          "internalType": "uint256",
          "name": "_originalId",
          "type": "uint256"
        },
        {
          "internalType": "address payable",
          "name": "_originalOwner",
          "type": "address"
        }
      ],
      "name": "uploadPost",
      "outputs": [],
      "stateMutability": "nonpayable",
      "type": "function"
    },
    {
      "inputs": [
        {
          "internalType": "uint256",
          "name": "_postId",
          "type": "uint256"
        }
      ],
      "name": "likeOriginalPost",
      "outputs": [],
      "stateMutability": "nonpayable",
      "type": "function"
    },
    {
      "inputs": [
        {
          "internalType": "uint256",
          "name": "_feedpostId",
          "type": "uint256"
        },
        {
          "internalType": "uint256",
          "name": "_originalpostId",
          "type": "uint256"
        }
      ],
      "name": "likeFeedPost",
      "outputs": [],
      "stateMutability": "nonpayable",
      "type": "function"
    },
    {
      "inputs": [
        {
          "internalType": "uint256",
          "name": "_postId",
          "type": "uint256"
        }
      ],
      "name": "changeOwner",
      "outputs": [],
      "stateMutability": "payable",
      "type": "function",
      "payable": true
    },
    {
      "inputs": [
        {
          "internalType": "uint256",
          "name": "_postId",
          "type": "uint256"
        }
      ],
      "name": "repost",
      "outputs": [],
      "stateMutability": "nonpayable",
      "type": "function"
    },
    {
      "inputs": [
        {
          "internalType": "string",
          "name": "_videoHash",
          "type": "string"
        },
        {
          "internalType": "string",
          "name": "_title",
          "type": "string"
        },
        {
          "internalType": "uint256",
          "name": "_price",
          "type": "uint256"
        }
      ],
      "name": "uploadVideo",
      "outputs": [],
      "stateMutability": "nonpayable",
      "type": "function"
    },
    {
      "inputs": [
        {
          "internalType": "uint256",
          "name": "_id",
          "type": "uint256"
        }
      ],
      "name": "watchVideo",
      "outputs": [],
      "stateMutability": "nonpayable",
      "type": "function"
    }
  ],
  "bytecode": "0x6080604052620f424060025567016345785d8a0000600455600060065560006008556000600a556000600c5534801561003757600080fd5b506002546000803373ffffffffffffffffffffffffffffffffffffffff1673ffffffffffffffffffffffffffffffffffffffff1681526020019081526020016000208190555033600360006101000a81548173ffffffffffffffffffffffffffffffffffffffff021916908373ffffffffffffffffffffffffffffffffffffffff1602179055506142c2806100cd6000396000f3fe6080604052600436106101c25760003560e01c80637c0fd4be116100f7578063a9059cbb11610095578063d7195be811610064578063d7195be814610ea2578063dd62ed3e14610edd578063e6821bf514610f62578063e6bf53cc146110ad576101c2565b8063a9059cbb14610dc4578063bf96ae6314610e35578063c61b5f4c14610e4c578063c71daccb14610e77576101c2565b8063924c19f7116100d1578063924c19f714610cbb57806395d89b4114610ce95780639d76ea5814610d79578063a482171914610dba576101c2565b80637c0fd4be146108655780637d54d94b14610a405780638cd60fd114610c76576101c2565b80632397e4d7116101645780633ccfd60b1161013e5780633ccfd60b146105e75780635771a812146105fe578063650ed7091461063957806370a0823114610800576101c2565b80632397e4d7146104ed57806323b872dd14610528578063313ce567146105b9576101c2565b806307973ccf116101a057806307973ccf146103eb578063095ea7b3146104165780630ea37c641461048757806318160ddd146104c2576101c2565b8063020953f1146101c757806306fdde03146101f25780630755594f14610282575b600080fd5b3480156101d357600080fd5b506101dc6110d8565b6040518082815260200191505060405180910390f35b3480156101fe57600080fd5b506102076110de565b6040518080602001828103825283818151815260200191508051906020019080838360005b8381101561024757808201518184015260208101905061022c565b50505050905090810190601f1680156102745780820380516001836020036101000a031916815260200191505b509250505060405180910390f35b34801561028e57600080fd5b506103e9600480360360608110156102a557600080fd5b81019080803590602001906401000000008111156102c257600080fd5b8201836020820111156102d457600080fd5b803590602001918460018302840111640100000000831117156102f657600080fd5b91908080601f016020809104026020016040519081016040528093929190818152602001838380828437600081840152601f19601f8201169050808301925050505050505091929192908035906020019064010000000081111561035957600080fd5b82018360208201111561036b57600080fd5b8035906020019184600183028401116401000000008311171561038d57600080fd5b91908080601f016020809104026020016040519081016040528093929190818152602001838380828437600081840152601f19601f82011690508083019250505050505050919291929080359060200190929190505050611117565b005b3480156103f757600080fd5b506104006113a1565b6040518082815260200191505060405180910390f35b34801561042257600080fd5b5061046f6004803603604081101561043957600080fd5b81019080803573ffffffffffffffffffffffffffffffffffffffff169060200190929190803590602001909291905050506113a7565b60405180821515815260200191505060405180910390f35b34801561049357600080fd5b506104c0600480360360208110156104aa57600080fd5b8101908080359060200190929190505050611499565b005b3480156104ce57600080fd5b506104d761185a565b6040518082815260200191505060405180910390f35b3480156104f957600080fd5b506105266004803603602081101561051057600080fd5b8101908080359060200190929190505050611864565b005b34801561053457600080fd5b506105a16004803603606081101561054b57600080fd5b81019080803573ffffffffffffffffffffffffffffffffffffffff169060200190929190803573ffffffffffffffffffffffffffffffffffffffff16906020019092919080359060200190929190505050611af0565b60405180821515815260200191505060405180910390f35b3480156105c557600080fd5b506105ce611e6b565b604051808260ff16815260200191505060405180910390f35b3480156105f357600080fd5b506105fc611e70565b005b34801561060a57600080fd5b506106376004803603602081101561062157600080fd5b8101908080359060200190929190505050611f43565b005b34801561064557600080fd5b506106726004803603602081101561065c57600080fd5b810190808035906020019092919050505061213c565b604051808981526020018881526020018060200180602001806020018773ffffffffffffffffffffffffffffffffffffffff168152602001861515815260200185815260200184810384528a818151815260200191508051906020019080838360005b838110156106f05780820151818401526020810190506106d5565b50505050905090810190601f16801561071d5780820380516001836020036101000a031916815260200191505b50848103835289818151815260200191508051906020019080838360005b8381101561075657808201518184015260208101905061073b565b50505050905090810190601f1680156107835780820380516001836020036101000a031916815260200191505b50848103825288818151815260200191508051906020019080838360005b838110156107bc5780820151818401526020810190506107a1565b50505050905090810190601f1680156107e95780820380516001836020036101000a031916815260200191505b509b50505050505050505050505060405180910390f35b34801561080c57600080fd5b5061084f6004803603602081101561082357600080fd5b81019080803573ffffffffffffffffffffffffffffffffffffffff169060200190929190505050612379565b6040518082815260200191505060405180910390f35b34801561087157600080fd5b5061089e6004803603602081101561088857600080fd5b81019080803590602001909291905050506123c1565b604051808981526020018881526020018060200180602001806020018781526020018673ffffffffffffffffffffffffffffffffffffffff1681526020018573ffffffffffffffffffffffffffffffffffffffff16815260200184810384528a818151815260200191508051906020019080838360005b83811015610930578082015181840152602081019050610915565b50505050905090810190601f16801561095d5780820380516001836020036101000a031916815260200191505b50848103835289818151815260200191508051906020019080838360005b8381101561099657808201518184015260208101905061097b565b50505050905090810190601f1680156109c35780820380516001836020036101000a031916815260200191505b50848103825288818151815260200191508051906020019080838360005b838110156109fc5780820151818401526020810190506109e1565b50505050905090810190601f168015610a295780820380516001836020036101000a031916815260200191505b509b50505050505050505050505060405180910390f35b348015610a4c57600080fd5b50610c74600480360360e0811015610a6357600080fd5b8101908080359060200190640100000000811115610a8057600080fd5b820183602082011115610a9257600080fd5b80359060200191846001830284011164010000000083111715610ab457600080fd5b91908080601f016020809104026020016040519081016040528093929190818152602001838380828437600081840152601f19601f82011690508083019250505050505050919291929080359060200190640100000000811115610b1757600080fd5b820183602082011115610b2957600080fd5b80359060200191846001830284011164010000000083111715610b4b57600080fd5b91908080601f016020809104026020016040519081016040528093929190818152602001838380828437600081840152601f19601f82011690508083019250505050505050919291929080359060200190640100000000811115610bae57600080fd5b820183602082011115610bc057600080fd5b80359060200191846001830284011164010000000083111715610be257600080fd5b91908080601f016020809104026020016040519081016040528093929190818152602001838380828437600081840152601f19601f8201169050808301925050505050505091929192908035151590602001909291908035906020019092919080359060200190929190803573ffffffffffffffffffffffffffffffffffffffff169060200190929190505050612611565b005b348015610c8257600080fd5b50610cb960048036036040811015610c9957600080fd5b81019080803590602001909291908035906020019092919050505061296e565b005b610ce760048036036020811015610cd157600080fd5b810190808035906020019092919050505061314f565b005b348015610cf557600080fd5b50610cfe613567565b6040518080602001828103825283818151815260200191508051906020019080838360005b83811015610d3e578082015181840152602081019050610d23565b50505050905090810190601f168015610d6b5780820380516001836020036101000a031916815260200191505b509250505060405180910390f35b348015610d8557600080fd5b50610d8e6135a0565b604051808273ffffffffffffffffffffffffffffffffffffffff16815260200191505060405180910390f35b610dc26135c6565b005b348015610dd057600080fd5b50610e1d60048036036040811015610de757600080fd5b81019080803573ffffffffffffffffffffffffffffffffffffffff1690602001909291908035906020019092919050505061382d565b60405180821515815260200191505060405180910390f35b348015610e4157600080fd5b50610e4a613a0f565b005b348015610e5857600080fd5b50610e61613a77565b6040518082815260200191505060405180910390f35b348015610e8357600080fd5b50610e8c613a7d565b6040518082815260200191505060405180910390f35b348015610eae57600080fd5b50610edb60048036036020811015610ec557600080fd5b8101908080359060200190929190505050613a8d565b005b348015610ee957600080fd5b50610f4c60048036036040811015610f0057600080fd5b81019080803573ffffffffffffffffffffffffffffffffffffffff169060200190929190803573ffffffffffffffffffffffffffffffffffffffff169060200190929190505050613e4e565b6040518082815260200191505060405180910390f35b348015610f6e57600080fd5b50610f9b60048036036020811015610f8557600080fd5b8101908080359060200190929190505050613ed5565b6040518086815260200180602001806020018573ffffffffffffffffffffffffffffffffffffffff168152602001848152602001838103835287818151815260200191508051906020019080838360005b83811015611007578082015181840152602081019050610fec565b50505050905090810190601f1680156110345780820380516001836020036101000a031916815260200191505b50838103825286818151815260200191508051906020019080838360005b8381101561106d578082015181840152602081019050611052565b50505050905090810190601f16801561109a5780820380516001836020036101000a031916815260200191505b5097505050505050505060405180910390f35b3480156110b957600080fd5b506110c261405b565b6040518082815260200191505060405180910390f35b60085481565b6040518060400160405280600b81526020017f54726f766520546f6b656e00000000000000000000000000000000000000000081525081565b600083511161112557600080fd5b600082511161113357600080fd5b600073ffffffffffffffffffffffffffffffffffffffff163373ffffffffffffffffffffffffffffffffffffffff16141561116d57600080fd5b600c600081548092919060010191905055506040518060a00160405280600c5481526020018481526020018381526020013373ffffffffffffffffffffffffffffffffffffffff16815260200182815250600d6000600c5481526020019081526020016000206000820151816000015560208201518160010190805190602001906111f9929190614094565b506040820151816002019080519060200190611216929190614094565b5060608201518160030160006101000a81548173ffffffffffffffffffffffffffffffffffffffff021916908373ffffffffffffffffffffffffffffffffffffffff160217905550608082015181600401559050507f2c44b862f4b4e08a26a765f9499900759a9ec95360a6f174d53163bd5d367f67600c548484336040518085815260200180602001806020018473ffffffffffffffffffffffffffffffffffffffff168152602001838103835286818151815260200191508051906020019080838360005b838110156112f85780820151818401526020810190506112dd565b50505050905090810190601f1680156113255780820380516001836020036101000a031916815260200191505b50838103825285818151815260200191508051906020019080838360005b8381101561135e578082015181840152602081019050611343565b50505050905090810190601f16801561138b5780820380516001836020036101000a031916815260200191505b50965050505050505060405180910390a1505050565b60065481565b600081600160003373ffffffffffffffffffffffffffffffffffffffff1673ffffffffffffffffffffffffffffffffffffffff16815260200190815260200160002060008573ffffffffffffffffffffffffffffffffffffffff1673ffffffffffffffffffffffffffffffffffffffff168152602001908152602001600020819055508273ffffffffffffffffffffffffffffffffffffffff163373ffffffffffffffffffffffffffffffffffffffff167f8c5be1e5ebec7d5bd14f71427d1e84f3dd0314c0f7b2291e5b200ac8c7c3b925846040518082815260200191505060405180910390a36001905092915050565b6000811180156114ab57506008548111155b6114b457600080fd5b6114bc614114565b60096000838152602001908152602001600020604051806101000160405290816000820154815260200160018201548152602001600282018054600181600116156101000203166002900480601f0160208091040260200160405190810160405280929190818152602001828054600181600116156101000203166002900480156115885780601f1061155d57610100808354040283529160200191611588565b820191906000526020600020905b81548152906001019060200180831161156b57829003601f168201915b50505050508152602001600382018054600181600116156101000203166002900480601f01602080910402602001604051908101604052809291908181526020018280546001816001161561010002031660029004801561162a5780601f106115ff5761010080835404028352916020019161162a565b820191906000526020600020905b81548152906001019060200180831161160d57829003601f168201915b50505050508152602001600482018054600181600116156101000203166002900480601f0160208091040260200160405190810160405280929190818152602001828054600181600116156101000203166002900480156116cc5780601f106116a1576101008083540402835291602001916116cc565b820191906000526020600020905b8154815290600101906020018083116116af57829003601f168201915b505050505081526020016005820160009054906101000a900473ffffffffffffffffffffffffffffffffffffffff1673ffffffffffffffffffffffffffffffffffffffff1673ffffffffffffffffffffffffffffffffffffffff1681526020016005820160149054906101000a900460ff16151515158152602001600682015481525050905060018160c00190151590811515815250508060096000848152602001908152602001600020600082015181600001556020820151816001015560408201518160020190805190602001906117a7929190614094565b5060608201518160030190805190602001906117c4929190614094565b5060808201518160040190805190602001906117e1929190614094565b5060a08201518160050160006101000a81548173ffffffffffffffffffffffffffffffffffffffff021916908373ffffffffffffffffffffffffffffffffffffffff16021790555060c08201518160050160146101000a81548160ff02191690831515021790555060e082015181600601559050505050565b6000600254905090565b8061186e33612379565b10156118c5576040517f08c379a000000000000000000000000000000000000000000000000000000000815260040180806020018281038252602381526020018061426a6023913960400191505060405180910390fd5b806000803373ffffffffffffffffffffffffffffffffffffffff1673ffffffffffffffffffffffffffffffffffffffff16815260200190815260200160002054036000803373ffffffffffffffffffffffffffffffffffffffff1673ffffffffffffffffffffffffffffffffffffffff1681526020019081526020016000208190555080600080600360009054906101000a900473ffffffffffffffffffffffffffffffffffffffff1673ffffffffffffffffffffffffffffffffffffffff1673ffffffffffffffffffffffffffffffffffffffff1681526020019081526020016000205401600080600360009054906101000a900473ffffffffffffffffffffffffffffffffffffffff1673ffffffffffffffffffffffffffffffffffffffff1673ffffffffffffffffffffffffffffffffffffffff1681526020019081526020016000208190555060006004548202905080600560003373ffffffffffffffffffffffffffffffffffffffff1673ffffffffffffffffffffffffffffffffffffffff16815260200190815260200160002060008282540192505081905550600360009054906101000a900473ffffffffffffffffffffffffffffffffffffffff1673ffffffffffffffffffffffffffffffffffffffff163373ffffffffffffffffffffffffffffffffffffffff167fddf252ad1be2c89b69c2b068fc378daa952ba7f163c4a11628f55a4df523b3ef836040518082815260200191505060405180910390a35050565b60008060008573ffffffffffffffffffffffffffffffffffffffff1673ffffffffffffffffffffffffffffffffffffffff16815260200190815260200160002054821115611b3d57600080fd5b600160008573ffffffffffffffffffffffffffffffffffffffff1673ffffffffffffffffffffffffffffffffffffffff16815260200190815260200160002060003373ffffffffffffffffffffffffffffffffffffffff1673ffffffffffffffffffffffffffffffffffffffff16815260200190815260200160002054821115611bc657600080fd5b611c17826000808773ffffffffffffffffffffffffffffffffffffffff1673ffffffffffffffffffffffffffffffffffffffff1681526020019081526020016000205461406190919063ffffffff16565b6000808673ffffffffffffffffffffffffffffffffffffffff1673ffffffffffffffffffffffffffffffffffffffff16815260200190815260200160002081905550611ce882600160008773ffffffffffffffffffffffffffffffffffffffff1673ffffffffffffffffffffffffffffffffffffffff16815260200190815260200160002060003373ffffffffffffffffffffffffffffffffffffffff1673ffffffffffffffffffffffffffffffffffffffff1681526020019081526020016000205461406190919063ffffffff16565b600160008673ffffffffffffffffffffffffffffffffffffffff1673ffffffffffffffffffffffffffffffffffffffff16815260200190815260200160002060003373ffffffffffffffffffffffffffffffffffffffff1673ffffffffffffffffffffffffffffffffffffffff16815260200190815260200160002081905550611db9826000808673ffffffffffffffffffffffffffffffffffffffff1673ffffffffffffffffffffffffffffffffffffffff1681526020019081526020016000205461407890919063ffffffff16565b6000808573ffffffffffffffffffffffffffffffffffffffff1673ffffffffffffffffffffffffffffffffffffffff168152602001908152602001600020819055508273ffffffffffffffffffffffffffffffffffffffff168473ffffffffffffffffffffffffffffffffffffffff167fddf252ad1be2c89b69c2b068fc378daa952ba7f163c4a11628f55a4df523b3ef846040518082815260200191505060405180910390a3600190509392505050565b601281565b6000600560003373ffffffffffffffffffffffffffffffffffffffff1673ffffffffffffffffffffffffffffffffffffffff1681526020019081526020016000205490503373ffffffffffffffffffffffffffffffffffffffff166108fc829081150290604051600060405180830381858888f19350505050158015611efa573d6000803e3d6000fd5b506000600560003373ffffffffffffffffffffffffffffffffffffffff1673ffffffffffffffffffffffffffffffffffffffff1681526020019081526020016000208190555050565b611f4b614171565b600d60008381526020019081526020016000206040518060a001604052908160008201548152602001600182018054600181600116156101000203166002900480601f01602080910402602001604051908101604052809291908181526020018280546001816001161561010002031660029004801561200c5780601f10611fe15761010080835404028352916020019161200c565b820191906000526020600020905b815481529060010190602001808311611fef57829003601f168201915b50505050508152602001600282018054600181600116156101000203166002900480601f0160208091040260200160405190810160405280929190818152602001828054600181600116156101000203166002900480156120ae5780601f10612083576101008083540402835291602001916120ae565b820191906000526020600020905b81548152906001019060200180831161209157829003601f168201915b505050505081526020016003820160009054906101000a900473ffffffffffffffffffffffffffffffffffffffff1673ffffffffffffffffffffffffffffffffffffffff1673ffffffffffffffffffffffffffffffffffffffff1681526020016004820154815250509050600081606001519050600082608001519050612135828261382d565b5050505050565b6009602052806000526040600020600091509050806000015490806001015490806002018054600181600116156101000203166002900480601f0160208091040260200160405190810160405280929190818152602001828054600181600116156101000203166002900480156121f45780601f106121c9576101008083540402835291602001916121f4565b820191906000526020600020905b8154815290600101906020018083116121d757829003601f168201915b505050505090806003018054600181600116156101000203166002900480601f0160208091040260200160405190810160405280929190818152602001828054600181600116156101000203166002900480156122925780601f1061226757610100808354040283529160200191612292565b820191906000526020600020905b81548152906001019060200180831161227557829003601f168201915b505050505090806004018054600181600116156101000203166002900480601f0160208091040260200160405190810160405280929190818152602001828054600181600116156101000203166002900480156123305780601f1061230557610100808354040283529160200191612330565b820191906000526020600020905b81548152906001019060200180831161231357829003601f168201915b5050505050908060050160009054906101000a900473ffffffffffffffffffffffffffffffffffffffff16908060050160149054906101000a900460ff16908060060154905088565b60008060008373ffffffffffffffffffffffffffffffffffffffff1673ffffffffffffffffffffffffffffffffffffffff168152602001908152602001600020549050919050565b600b602052806000526040600020600091509050806000015490806001015490806002018054600181600116156101000203166002900480601f0160208091040260200160405190810160405280929190818152602001828054600181600116156101000203166002900480156124795780601f1061244e57610100808354040283529160200191612479565b820191906000526020600020905b81548152906001019060200180831161245c57829003601f168201915b505050505090806003018054600181600116156101000203166002900480601f0160208091040260200160405190810160405280929190818152602001828054600181600116156101000203166002900480156125175780601f106124ec57610100808354040283529160200191612517565b820191906000526020600020905b8154815290600101906020018083116124fa57829003601f168201915b505050505090806004018054600181600116156101000203166002900480601f0160208091040260200160405190810160405280929190818152602001828054600181600116156101000203166002900480156125b55780601f1061258a576101008083540402835291602001916125b5565b820191906000526020600020905b81548152906001019060200180831161259857829003601f168201915b5050505050908060050154908060060160009054906101000a900473ffffffffffffffffffffffffffffffffffffffff16908060070160009054906101000a900473ffffffffffffffffffffffffffffffffffffffff16905088565b600087511161261f57600080fd5b600085511161262d57600080fd5b600073ffffffffffffffffffffffffffffffffffffffff163373ffffffffffffffffffffffffffffffffffffffff16141561266757600080fd5b83156127ce576008600081548092919060010191905055506040518061010001604052806008548152602001600081526020018881526020018781526020018681526020013373ffffffffffffffffffffffffffffffffffffffff168152602001600115158152602001848152506009600060085481526020019081526020016000206000820151816000015560208201518160010155604082015181600201908051906020019061271a929190614094565b506060820151816003019080519060200190612737929190614094565b506080820151816004019080519060200190612754929190614094565b5060a08201518160050160006101000a81548173ffffffffffffffffffffffffffffffffffffffff021916908373ffffffffffffffffffffffffffffffffffffffff16021790555060c08201518160050160146101000a81548160ff02191690831515021790555060e08201518160060155905050612965565b600a60008154809291906001019190505550604051806101000160405280600a548152602001600081526020018881526020018781526020018681526020018381526020018273ffffffffffffffffffffffffffffffffffffffff1681526020013373ffffffffffffffffffffffffffffffffffffffff16815250600b6000600a5481526020019081526020016000206000820151816000015560208201518160010155604082015181600201908051906020019061288e929190614094565b5060608201518160030190805190602001906128ab929190614094565b5060808201518160040190805190602001906128c8929190614094565b5060a0820151816005015560c08201518160060160006101000a81548173ffffffffffffffffffffffffffffffffffffffff021916908373ffffffffffffffffffffffffffffffffffffffff16021790555060e08201518160070160006101000a81548173ffffffffffffffffffffffffffffffffffffffff021916908373ffffffffffffffffffffffffffffffffffffffff1602179055509050505b50505050505050565b6000821180156129805750600a548211155b801561298c5750600081115b801561299a57506008548111155b6129a357600080fd5b6129ab614114565b60096000838152602001908152602001600020604051806101000160405290816000820154815260200160018201548152602001600282018054600181600116156101000203166002900480601f016020809104026020016040519081016040528092919081815260200182805460018160011615610100020316600290048015612a775780601f10612a4c57610100808354040283529160200191612a77565b820191906000526020600020905b815481529060010190602001808311612a5a57829003601f168201915b50505050508152602001600382018054600181600116156101000203166002900480601f016020809104026020016040519081016040528092919081815260200182805460018160011615610100020316600290048015612b195780601f10612aee57610100808354040283529160200191612b19565b820191906000526020600020905b815481529060010190602001808311612afc57829003601f168201915b50505050508152602001600482018054600181600116156101000203166002900480601f016020809104026020016040519081016040528092919081815260200182805460018160011615610100020316600290048015612bbb5780601f10612b9057610100808354040283529160200191612bbb565b820191906000526020600020905b815481529060010190602001808311612b9e57829003601f168201915b505050505081526020016005820160009054906101000a900473ffffffffffffffffffffffffffffffffffffffff1673ffffffffffffffffffffffffffffffffffffffff1673ffffffffffffffffffffffffffffffffffffffff1681526020016005820160149054906101000a900460ff1615151515815260200160068201548152505090506001816020015101816020018181525050806009600084815260200190815260200160002060008201518160000155602082015181600101556040820151816002019080519060200190612c96929190614094565b506060820151816003019080519060200190612cb3929190614094565b506080820151816004019080519060200190612cd0929190614094565b5060a08201518160050160006101000a81548173ffffffffffffffffffffffffffffffffffffffff021916908373ffffffffffffffffffffffffffffffffffffffff16021790555060c08201518160050160146101000a81548160ff02191690831515021790555060e08201518160060155905050612d4d6141b6565b600b6000858152602001908152602001600020604051806101000160405290816000820154815260200160018201548152602001600282018054600181600116156101000203166002900480601f016020809104026020016040519081016040528092919081815260200182805460018160011615610100020316600290048015612e195780601f10612dee57610100808354040283529160200191612e19565b820191906000526020600020905b815481529060010190602001808311612dfc57829003601f168201915b50505050508152602001600382018054600181600116156101000203166002900480601f016020809104026020016040519081016040528092919081815260200182805460018160011615610100020316600290048015612ebb5780601f10612e9057610100808354040283529160200191612ebb565b820191906000526020600020905b815481529060010190602001808311612e9e57829003601f168201915b50505050508152602001600482018054600181600116156101000203166002900480601f016020809104026020016040519081016040528092919081815260200182805460018160011615610100020316600290048015612f5d5780601f10612f3257610100808354040283529160200191612f5d565b820191906000526020600020905b815481529060010190602001808311612f4057829003601f168201915b50505050508152602001600582015481526020016006820160009054906101000a900473ffffffffffffffffffffffffffffffffffffffff1673ffffffffffffffffffffffffffffffffffffffff1673ffffffffffffffffffffffffffffffffffffffff1681526020016007820160009054906101000a900473ffffffffffffffffffffffffffffffffffffffff1673ffffffffffffffffffffffffffffffffffffffff1673ffffffffffffffffffffffffffffffffffffffff16815250509050600181602001510181602001818152505080600b600086815260200190815260200160002060008201518160000155602082015181600101556040820151816002019080519060200190613073929190614094565b506060820151816003019080519060200190613090929190614094565b5060808201518160040190805190602001906130ad929190614094565b5060a0820151816005015560c08201518160060160006101000a81548173ffffffffffffffffffffffffffffffffffffffff021916908373ffffffffffffffffffffffffffffffffffffffff16021790555060e08201518160070160006101000a81548173ffffffffffffffffffffffffffffffffffffffff021916908373ffffffffffffffffffffffffffffffffffffffff16021790555090505050505050565b60008111801561316157506008548111155b61316a57600080fd5b613172614114565b60096000838152602001908152602001600020604051806101000160405290816000820154815260200160018201548152602001600282018054600181600116156101000203166002900480601f01602080910402602001604051908101604052809291908181526020018280546001816001161561010002031660029004801561323e5780601f106132135761010080835404028352916020019161323e565b820191906000526020600020905b81548152906001019060200180831161322157829003601f168201915b50505050508152602001600382018054600181600116156101000203166002900480601f0160208091040260200160405190810160405280929190818152602001828054600181600116156101000203166002900480156132e05780601f106132b5576101008083540402835291602001916132e0565b820191906000526020600020905b8154815290600101906020018083116132c357829003601f168201915b50505050508152602001600482018054600181600116156101000203166002900480601f0160208091040260200160405190810160405280929190818152602001828054600181600116156101000203166002900480156133825780601f1061335757610100808354040283529160200191613382565b820191906000526020600020905b81548152906001019060200180831161336557829003601f168201915b505050505081526020016005820160009054906101000a900473ffffffffffffffffffffffffffffffffffffffff1673ffffffffffffffffffffffffffffffffffffffff1673ffffffffffffffffffffffffffffffffffffffff1681526020016005820160149054906101000a900460ff16151515158152602001600682015481525050905060008160a00151905060008260e001519050613424828261382d565b50338360a0019073ffffffffffffffffffffffffffffffffffffffff16908173ffffffffffffffffffffffffffffffffffffffff168152505060008360c00190151590811515815250508260096000868152602001908152602001600020600082015181600001556020820151816001015560408201518160020190805190602001906134b2929190614094565b5060608201518160030190805190602001906134cf929190614094565b5060808201518160040190805190602001906134ec929190614094565b5060a08201518160050160006101000a81548173ffffffffffffffffffffffffffffffffffffffff021916908373ffffffffffffffffffffffffffffffffffffffff16021790555060c08201518160050160146101000a81548160ff02191690831515021790555060e0820151816006015590505050505050565b6040518060400160405280600281526020017f545400000000000000000000000000000000000000000000000000000000000081525081565b600360009054906101000a900473ffffffffffffffffffffffffffffffffffffffff1681565b600060045434816135d357fe5b04905080613602600360009054906101000a900473ffffffffffffffffffffffffffffffffffffffff16612379565b1015613659576040517f08c379a00000000000000000000000000000000000000000000000000000000081526004018080602001828103825260258152602001806142456025913960400191505060405180910390fd5b806000803373ffffffffffffffffffffffffffffffffffffffff1673ffffffffffffffffffffffffffffffffffffffff16815260200190815260200160002054016000803373ffffffffffffffffffffffffffffffffffffffff1673ffffffffffffffffffffffffffffffffffffffff1681526020019081526020016000208190555080600080600360009054906101000a900473ffffffffffffffffffffffffffffffffffffffff1673ffffffffffffffffffffffffffffffffffffffff1673ffffffffffffffffffffffffffffffffffffffff1681526020019081526020016000205403600080600360009054906101000a900473ffffffffffffffffffffffffffffffffffffffff1673ffffffffffffffffffffffffffffffffffffffff1673ffffffffffffffffffffffffffffffffffffffff168152602001908152602001600020819055503373ffffffffffffffffffffffffffffffffffffffff16600360009054906101000a900473ffffffffffffffffffffffffffffffffffffffff1673ffffffffffffffffffffffffffffffffffffffff167fddf252ad1be2c89b69c2b068fc378daa952ba7f163c4a11628f55a4df523b3ef836040518082815260200191505060405180910390a350565b60008060003373ffffffffffffffffffffffffffffffffffffffff1673ffffffffffffffffffffffffffffffffffffffff1681526020019081526020016000205482111561387a57600080fd5b6138cb826000803373ffffffffffffffffffffffffffffffffffffffff1673ffffffffffffffffffffffffffffffffffffffff1681526020019081526020016000205461406190919063ffffffff16565b6000803373ffffffffffffffffffffffffffffffffffffffff1673ffffffffffffffffffffffffffffffffffffffff1681526020019081526020016000208190555061395e826000808673ffffffffffffffffffffffffffffffffffffffff1673ffffffffffffffffffffffffffffffffffffffff1681526020019081526020016000205461407890919063ffffffff16565b6000808573ffffffffffffffffffffffffffffffffffffffff1673ffffffffffffffffffffffffffffffffffffffff168152602001908152602001600020819055508273ffffffffffffffffffffffffffffffffffffffff163373ffffffffffffffffffffffffffffffffffffffff167fddf252ad1be2c89b69c2b068fc378daa952ba7f163c4a11628f55a4df523b3ef846040518082815260200191505060405180910390a36001905092915050565b6006600081548092919060010191905055503360076000600654815260200190815260200160002060006101000a81548173ffffffffffffffffffffffffffffffffffffffff021916908373ffffffffffffffffffffffffffffffffffffffff160217905550565b600c5481565b6000613a8833612379565b905090565b600081118015613a9f57506008548111155b613aa857600080fd5b613ab0614114565b60096000838152602001908152602001600020604051806101000160405290816000820154815260200160018201548152602001600282018054600181600116156101000203166002900480601f016020809104026020016040519081016040528092919081815260200182805460018160011615610100020316600290048015613b7c5780601f10613b5157610100808354040283529160200191613b7c565b820191906000526020600020905b815481529060010190602001808311613b5f57829003601f168201915b50505050508152602001600382018054600181600116156101000203166002900480601f016020809104026020016040519081016040528092919081815260200182805460018160011615610100020316600290048015613c1e5780601f10613bf357610100808354040283529160200191613c1e565b820191906000526020600020905b815481529060010190602001808311613c0157829003601f168201915b50505050508152602001600482018054600181600116156101000203166002900480601f016020809104026020016040519081016040528092919081815260200182805460018160011615610100020316600290048015613cc05780601f10613c9557610100808354040283529160200191613cc0565b820191906000526020600020905b815481529060010190602001808311613ca357829003601f168201915b505050505081526020016005820160009054906101000a900473ffffffffffffffffffffffffffffffffffffffff1673ffffffffffffffffffffffffffffffffffffffff1673ffffffffffffffffffffffffffffffffffffffff1681526020016005820160149054906101000a900460ff1615151515815260200160068201548152505090506001816020015101816020018181525050806009600084815260200190815260200160002060008201518160000155602082015181600101556040820151816002019080519060200190613d9b929190614094565b506060820151816003019080519060200190613db8929190614094565b506080820151816004019080519060200190613dd5929190614094565b5060a08201518160050160006101000a81548173ffffffffffffffffffffffffffffffffffffffff021916908373ffffffffffffffffffffffffffffffffffffffff16021790555060c08201518160050160146101000a81548160ff02191690831515021790555060e082015181600601559050505050565b6000600160008473ffffffffffffffffffffffffffffffffffffffff1673ffffffffffffffffffffffffffffffffffffffff16815260200190815260200160002060008373ffffffffffffffffffffffffffffffffffffffff1673ffffffffffffffffffffffffffffffffffffffff16815260200190815260200160002054905092915050565b600d602052806000526040600020600091509050806000015490806001018054600181600116156101000203166002900480601f016020809104026020016040519081016040528092919081815260200182805460018160011615610100020316600290048015613f875780601f10613f5c57610100808354040283529160200191613f87565b820191906000526020600020905b815481529060010190602001808311613f6a57829003601f168201915b505050505090806002018054600181600116156101000203166002900480601f0160208091040260200160405190810160405280929190818152602001828054600181600116156101000203166002900480156140255780601f10613ffa57610100808354040283529160200191614025565b820191906000526020600020905b81548152906001019060200180831161400857829003601f168201915b5050505050908060030160009054906101000a900473ffffffffffffffffffffffffffffffffffffffff16908060040154905085565b600a5481565b60008282111561406d57fe5b818303905092915050565b60008082840190508381101561408a57fe5b8091505092915050565b828054600181600116156101000203166002900490600052602060002090601f016020900481019282601f106140d557805160ff1916838001178555614103565b82800160010185558215614103579182015b828111156141025782518255916020019190600101906140e7565b5b5090506141109190614227565b5090565b6040518061010001604052806000815260200160008152602001606081526020016060815260200160608152602001600073ffffffffffffffffffffffffffffffffffffffff168152602001600015158152602001600081525090565b6040518060a00160405280600081526020016060815260200160608152602001600073ffffffffffffffffffffffffffffffffffffffff168152602001600081525090565b604051806101000160405280600081526020016000815260200160608152602001606081526020016060815260200160008152602001600073ffffffffffffffffffffffffffffffffffffffff168152602001600073ffffffffffffffffffffffffffffffffffffffff1681525090565b5b80821115614240576000816000905550600101614228565b509056fe436f6e747261637420646f6573206e6f74206861766520656e6f75676820746f6b656e732e53656c6c657220646f6573206e6f74206861766520656e6f75676820746f6b656e732ea264697066735822122049eb3dadc8455dafeabc36ec631f385d2008d8dcb44e46a0cc7b138e62c9d52f64736f6c634300060c0033",
  "immutableReferences": {},
  "source": "// SPDX-License-Identifier: GPL-3.0\r\n\r\npragma solidity ^0.6.0;\r\n\r\nimport \"./TroveCoin.sol\";\r\n\r\ncontract TroveIt is TroveCoin{\r\n    \r\n    \r\n    /**********************************************************************\r\n                        Trove Token : Data Variables\r\n    **********************************************************************/\r\n    \r\n    address public tokenAddress;\r\n    \r\n    constructor() public {\r\n        tokenAddress = msg.sender;\r\n    }\r\n    \r\n    uint256 private _sellPrice = 10**17; // 0.1 ether per token\r\n    \r\n    mapping (address => uint) private _pendingWithdrawals;\r\n    \r\n    /**********************************************************************\r\n                        SignUp : Data Variables\r\n    **********************************************************************/    \r\n    \r\n    uint256 public userCount = 0;\r\n    mapping(uint => address) private _users;\r\n    \r\n    /**********************************************************************\r\n                        MarketPlace : Data Variables\r\n    **********************************************************************/\r\n    \r\n    uint256 public originalPostCount = 0;\r\n    \r\n    mapping(uint256 => OriginalPost) public originalPosts;\r\n    \r\n    struct OriginalPost {\r\n        uint256 id;\r\n        uint256 likes;\r\n        string hash;\r\n        string phash;\r\n        string caption;\r\n        address payable owner;\r\n        bool martketplace;\r\n        uint256 price;\r\n    }\r\n    \r\n    /**********************************************************************\r\n                        Feed : Data Variables\r\n    **********************************************************************/\r\n    \r\n    uint256 public feedPostCount = 0;\r\n    \r\n    mapping(uint256 => FeedPost) public feedPosts;\r\n    \r\n    struct FeedPost {\r\n        uint256 id;\r\n        uint256 likes;\r\n        string hash;\r\n        string phash;\r\n        string caption;\r\n        uint256 originalId;\r\n        address payable originalOwner;\r\n        address payable owner;\r\n    }\r\n    \r\n    /**********************************************************************\r\n                        D-Reels : Data Variables\r\n    **********************************************************************/   \r\n    \r\n    uint public videoCount = 0;\r\n    \r\n    mapping(uint => Video) public videos;\r\n\r\n    struct Video {\r\n        uint id;\r\n        string hash;\r\n        string title;\r\n        address payable author;\r\n        uint256 price; \r\n    }\r\n\r\n    event VideoUploaded(\r\n        uint id,\r\n        string hash,\r\n        string title,\r\n        address payable author\r\n    );\r\n    \r\n    /**********************************************************************\r\n                        Trove Token : Functions\r\n    **********************************************************************/\r\n    \r\n    // 1. Buy token\r\n    function buyToken() public payable{\r\n        uint256 amount = msg.value/_sellPrice;\r\n        require(balanceOf(tokenAddress) >= amount, \"Contract does not have enough tokens.\");\r\n        balances[msg.sender] = balances[msg.sender] + amount;\r\n        balances[tokenAddress] = balances[tokenAddress] - amount;\r\n        emit Transfer(tokenAddress, msg.sender, amount);\r\n    }\r\n    \r\n    // 2. Sell token\r\n    function sellToken(uint256 amount) public {\r\n        require(balanceOf(msg.sender) >= amount, \"Seller does not have enough tokens.\");\r\n        balances[msg.sender] = balances[msg.sender] - amount;\r\n        balances[tokenAddress] = balances[tokenAddress] + amount;\r\n        uint256 tokenPrice = amount * _sellPrice;\r\n        _pendingWithdrawals[msg.sender] += tokenPrice;\r\n        emit Transfer(msg.sender, tokenAddress, tokenPrice);\r\n    }\r\n    \r\n    // 3. Check Balance\r\n    function checkBalance() public view returns(uint256){\r\n        return balanceOf(msg.sender);\r\n    }\r\n    \r\n    // 4. Withdraw ethers\r\n    function withdraw() public {\r\n        uint amount = _pendingWithdrawals[msg.sender];\r\n        msg.sender.transfer(amount);\r\n        _pendingWithdrawals[msg.sender] = 0;\r\n    }\r\n    \r\n    /**********************************************************************\r\n                        SignUp : Functions\r\n    **********************************************************************/\r\n    \r\n    //1. SignUp\r\n    function signUp() public {\r\n        userCount++;\r\n        _users[userCount] = msg.sender;\r\n    }\r\n    \r\n    /**********************************************************************\r\n                        MarketPlace & Feeds: Functions\r\n    **********************************************************************/\r\n    \r\n    //1. Upload Post \r\n    function uploadPost(string memory _postHash, string memory _phash, string memory _caption, bool _original, uint256 _price, uint256 _originalId, address payable _originalOwner) public {\r\n        // Make sure the post hash exists\r\n        require(bytes(_postHash).length > 0);\r\n        // Make sure post caption exists\r\n        require(bytes(_caption).length > 0);\r\n        // Make sure uploader address exists\r\n        require(msg.sender!=address(0));\r\n    \r\n        if(_original){\r\n            // Increment originalPost id\r\n            originalPostCount ++;\r\n        \r\n            // Add Post to the contract\r\n            originalPosts[originalPostCount] = OriginalPost(originalPostCount, 0, _postHash, _phash,_caption, msg.sender, true, _price);            \r\n        }else{\r\n            // Increment originalPost id\r\n            feedPostCount ++;\r\n        \r\n            // Add Post to the contract\r\n            feedPosts[feedPostCount] = FeedPost(feedPostCount, 0, _postHash, _phash,_caption, _originalId, _originalOwner, msg.sender);            \r\n        }\r\n\r\n    }\r\n    \r\n    //2. Like Original Post\r\n    function likeOriginalPost(uint256 _postId) public {\r\n        // Make sure the id is valid\r\n        require(_postId > 0 && _postId <= originalPostCount);\r\n        \r\n        // Fetch the Post\r\n        OriginalPost memory _post = originalPosts[_postId];\r\n        // Increment Like\r\n        _post.likes = _post.likes + 1;\r\n        \r\n        // Update the Post\r\n        originalPosts[_postId] = _post;\r\n    }\r\n\r\n    //3. Like Feed Post\r\n    function likeFeedPost(uint256 _feedpostId, uint256 _originalpostId) public {\r\n        // Make sure the post id are valid\r\n        require(_feedpostId > 0 && _feedpostId <= feedPostCount && _originalpostId > 0 && _originalpostId <= originalPostCount);\r\n        \r\n        // Fetch the Original Post\r\n        OriginalPost memory _originalpost = originalPosts[_originalpostId];\r\n        \r\n        // Increment Like\r\n        _originalpost.likes = _originalpost.likes + 1;\r\n        \r\n        // Update the Original Post\r\n        originalPosts[_originalpostId] = _originalpost;\r\n        \r\n        // Fetch the Feed Post\r\n        FeedPost memory _feedpost = feedPosts[_feedpostId];\r\n        \r\n        // Increment Like\r\n        _feedpost.likes = _feedpost.likes + 1;\r\n        \r\n        // Update the Original Post\r\n        feedPosts[_feedpostId] = _feedpost;        \r\n        \r\n    }\r\n    \r\n    //4. Buy a Post - Change the owner and transfer tokens  \r\n    function changeOwner(uint256 _postId) public payable{\r\n    \r\n        // Make sure the id is valid\r\n        require(_postId > 0 && _postId <= originalPostCount);\r\n      \r\n        // Fetch the Post\r\n        OriginalPost memory _post = originalPosts[_postId];\r\n        address payable _owner = _post.owner;\r\n        //Fetch the price\r\n        uint256 price = _post.price;\r\n        \r\n        // Pay the author by sending them trove token\r\n        transfer(_owner, price);\r\n        \r\n        // Change Owner\r\n        _post.owner = msg.sender;\r\n        \r\n        //Remove from martketplace\r\n        _post.martketplace = false;\r\n        \r\n        // Update the Post\r\n        originalPosts[_postId] = _post;\r\n    \r\n    }  \r\n\r\n    //5. Repost on Marketplace\r\n    function repost(uint256 _postId) public {\r\n        // Make sure the id is valid\r\n        require(_postId > 0 && _postId <= originalPostCount);\r\n        \r\n        // Fetch the Post\r\n        OriginalPost memory _post = originalPosts[_postId];\r\n        \r\n        // Add to martketplace\r\n        _post.martketplace = true;\r\n        \r\n        // Update the Post\r\n        originalPosts[_postId] = _post;\r\n    }\r\n    \r\n    /**********************************************************************\r\n                        D-Reels : Functions\r\n    **********************************************************************/   \r\n    \r\n    //1. Upload your video\r\n    function uploadVideo(string memory _videoHash, string memory _title, uint256 _price) public {\r\n        // Make sure the video hash exists\r\n        require(bytes(_videoHash).length > 0);\r\n        // Make sure video title exists\r\n        require(bytes(_title).length > 0);\r\n        // Make sure uploader address exists\r\n        require(msg.sender!=address(0));\r\n    \r\n        // Increment video id\r\n        videoCount ++;\r\n    \r\n        // Add video to the contract\r\n        videos[videoCount] = Video(videoCount, _videoHash, _title, msg.sender, _price);\r\n        // Trigger an event\r\n        emit VideoUploaded(videoCount, _videoHash, _title, msg.sender);\r\n    }\r\n  \r\n    //2. Pay with Trove Tokens to watch Video\r\n    function watchVideo(uint256 _id) public {\r\n      //Fetch the video\r\n      Video memory _video = videos[_id];\r\n      address payable _author = _video.author;\r\n      uint256 price = _video.price;\r\n        \r\n      // transfer tokens from callers to mentioned account\r\n      transfer(_author, price);\r\n    }\r\n    \r\n}",
  "sourcePath": "C:/Users/Rishikesh Kale/TroveIT/src/contracts/TroveIt.sol",
  "compiler": {
    "name": "solc",
    "version": "0.6.12+commit.27d51765.Emscripten.clang"
  },
  "schemaVersion": "3.3.4",
  "updatedAt": "2021-07-01T17:49:00.881Z",
  "networkType": "ethereum",
  "devdoc": {
    "kind": "dev",
    "methods": {},
    "version": 1
  },
  "userdoc": {
    "kind": "user",
    "methods": {},
    "version": 1
  }
}