{
  "contractName": "Trove",
  "abi": [
    {
      "inputs": [],
      "name": "feedPostCount",
      "outputs": [
        {
          "internalType": "uint256",
          "name": "",
          "type": "uint256"
        }
      ],
      "stateMutability": "view",
      "type": "function",
      "constant": true
    },
    {
      "inputs": [
        {
          "internalType": "uint256",
          "name": "",
          "type": "uint256"
        }
      ],
      "name": "feedPosts",
      "outputs": [
        {
          "internalType": "uint256",
          "name": "id",
          "type": "uint256"
        },
        {
          "internalType": "string",
          "name": "hash",
          "type": "string"
        },
        {
          "internalType": "string",
          "name": "phash",
          "type": "string"
        },
        {
          "internalType": "string",
          "name": "caption",
          "type": "string"
        },
        {
          "internalType": "address payable",
          "name": "owner",
          "type": "address"
        }
      ],
      "stateMutability": "view",
      "type": "function",
      "constant": true
    },
    {
      "inputs": [],
      "name": "originalPostCount",
      "outputs": [
        {
          "internalType": "uint256",
          "name": "",
          "type": "uint256"
        }
      ],
      "stateMutability": "view",
      "type": "function",
      "constant": true
    },
    {
      "inputs": [
        {
          "internalType": "uint256",
          "name": "",
          "type": "uint256"
        }
      ],
      "name": "originalPosts",
      "outputs": [
        {
          "internalType": "uint256",
          "name": "id",
          "type": "uint256"
        },
        {
          "internalType": "string",
          "name": "hash",
          "type": "string"
        },
        {
          "internalType": "string",
          "name": "phash",
          "type": "string"
        },
        {
          "internalType": "string",
          "name": "caption",
          "type": "string"
        },
        {
          "internalType": "address payable",
          "name": "owner",
          "type": "address"
        },
        {
          "internalType": "bool",
          "name": "martketplace",
          "type": "bool"
        }
      ],
      "stateMutability": "view",
      "type": "function",
      "constant": true
    },
    {
      "inputs": [
        {
          "internalType": "string",
          "name": "_postHash",
          "type": "string"
        },
        {
          "internalType": "string",
          "name": "_phash",
          "type": "string"
        },
        {
          "internalType": "string",
          "name": "_caption",
          "type": "string"
        },
        {
          "internalType": "bool",
          "name": "_original",
          "type": "bool"
        }
      ],
      "name": "uploadPost",
      "outputs": [],
      "stateMutability": "nonpayable",
      "type": "function"
    },
    {
      "inputs": [
        {
          "internalType": "uint256",
          "name": "_postId",
          "type": "uint256"
        }
      ],
      "name": "changeOwner",
      "outputs": [],
      "stateMutability": "payable",
      "type": "function",
      "payable": true
    },
    {
      "inputs": [
        {
          "internalType": "uint256",
          "name": "_postId",
          "type": "uint256"
        }
      ],
      "name": "repost",
      "outputs": [],
      "stateMutability": "nonpayable",
      "type": "function"
    }
  ],
  "bytecode": "0x608060405260008055600060025534801561001957600080fd5b50611685806100296000396000f3fe6080604052600436106100705760003560e01c8063724193dc1161004e578063724193dc146102945780637c0fd4be14610496578063924c19f714610646578063e6bf53cc1461067457610070565b8063020953f1146100755780630ea37c64146100a0578063650ed709146100db575b600080fd5b34801561008157600080fd5b5061008a61069f565b6040518082815260200191505060405180910390f35b3480156100ac57600080fd5b506100d9600480360360208110156100c357600080fd5b81019080803590602001909291905050506106a5565b005b3480156100e757600080fd5b50610114600480360360208110156100fe57600080fd5b8101908080359060200190929190505050610a3d565b604051808781526020018060200180602001806020018673ffffffffffffffffffffffffffffffffffffffff1681526020018515158152602001848103845289818151815260200191508051906020019080838360005b8381101561018657808201518184015260208101905061016b565b50505050905090810190601f1680156101b35780820380516001836020036101000a031916815260200191505b50848103835288818151815260200191508051906020019080838360005b838110156101ec5780820151818401526020810190506101d1565b50505050905090810190601f1680156102195780820380516001836020036101000a031916815260200191505b50848103825287818151815260200191508051906020019080838360005b83811015610252578082015181840152602081019050610237565b50505050905090810190601f16801561027f5780820380516001836020036101000a031916815260200191505b50995050505050505050505060405180910390f35b3480156102a057600080fd5b50610494600480360360808110156102b757600080fd5b81019080803590602001906401000000008111156102d457600080fd5b8201836020820111156102e657600080fd5b8035906020019184600183028401116401000000008311171561030857600080fd5b91908080601f016020809104026020016040519081016040528093929190818152602001838380828437600081840152601f19601f8201169050808301925050505050505091929192908035906020019064010000000081111561036b57600080fd5b82018360208201111561037d57600080fd5b8035906020019184600183028401116401000000008311171561039f57600080fd5b91908080601f016020809104026020016040519081016040528093929190818152602001838380828437600081840152601f19601f8201169050808301925050505050505091929192908035906020019064010000000081111561040257600080fd5b82018360208201111561041457600080fd5b8035906020019184600183028401116401000000008311171561043657600080fd5b91908080601f016020809104026020016040519081016040528093929190818152602001838380828437600081840152601f19601f820116905080830192505050505050509192919290803515159060200190929190505050610c6e565b005b3480156104a257600080fd5b506104cf600480360360208110156104b957600080fd5b8101908080359060200190929190505050610f1f565b604051808681526020018060200180602001806020018573ffffffffffffffffffffffffffffffffffffffff168152602001848103845288818151815260200191508051906020019080838360005b8381101561053957808201518184015260208101905061051e565b50505050905090810190601f1680156105665780820380516001836020036101000a031916815260200191505b50848103835287818151815260200191508051906020019080838360005b8381101561059f578082015181840152602081019050610584565b50505050905090810190601f1680156105cc5780820380516001836020036101000a031916815260200191505b50848103825286818151815260200191508051906020019080838360005b838110156106055780820151818401526020810190506105ea565b50505050905090810190601f1680156106325780820380516001836020036101000a031916815260200191505b509850505050505050505060405180910390f35b6106726004803603602081101561065c57600080fd5b810190808035906020019092919050505061113d565b005b34801561068057600080fd5b5061068961155e565b6040518082815260200191505060405180910390f35b60005481565b6000811180156106b757506000548111155b6106c057600080fd5b6106c8611564565b600160008381526020019081526020016000206040518060c001604052908160008201548152602001600182018054600181600116156101000203166002900480601f0160208091040260200160405190810160405280929190818152602001828054600181600116156101000203166002900480156107895780601f1061075e57610100808354040283529160200191610789565b820191906000526020600020905b81548152906001019060200180831161076c57829003601f168201915b50505050508152602001600282018054600181600116156101000203166002900480601f01602080910402602001604051908101604052809291908181526020018280546001816001161561010002031660029004801561082b5780601f106108005761010080835404028352916020019161082b565b820191906000526020600020905b81548152906001019060200180831161080e57829003601f168201915b50505050508152602001600382018054600181600116156101000203166002900480601f0160208091040260200160405190810160405280929190818152602001828054600181600116156101000203166002900480156108cd5780601f106108a2576101008083540402835291602001916108cd565b820191906000526020600020905b8154815290600101906020018083116108b057829003601f168201915b505050505081526020016004820160009054906101000a900473ffffffffffffffffffffffffffffffffffffffff1673ffffffffffffffffffffffffffffffffffffffff1673ffffffffffffffffffffffffffffffffffffffff1681526020016004820160149054906101000a900460ff161515151581525050905060008160a001901515908115158152505080600160008481526020019081526020016000206000820151816000015560208201518160010190805190602001906109949291906115b2565b5060408201518160020190805190602001906109b19291906115b2565b5060608201518160030190805190602001906109ce9291906115b2565b5060808201518160040160006101000a81548173ffffffffffffffffffffffffffffffffffffffff021916908373ffffffffffffffffffffffffffffffffffffffff16021790555060a08201518160040160146101000a81548160ff0219169083151502179055509050505050565b6001602052806000526040600020600091509050806000015490806001018054600181600116156101000203166002900480601f016020809104026020016040519081016040528092919081815260200182805460018160011615610100020316600290048015610aef5780601f10610ac457610100808354040283529160200191610aef565b820191906000526020600020905b815481529060010190602001808311610ad257829003601f168201915b505050505090806002018054600181600116156101000203166002900480601f016020809104026020016040519081016040528092919081815260200182805460018160011615610100020316600290048015610b8d5780601f10610b6257610100808354040283529160200191610b8d565b820191906000526020600020905b815481529060010190602001808311610b7057829003601f168201915b505050505090806003018054600181600116156101000203166002900480601f016020809104026020016040519081016040528092919081815260200182805460018160011615610100020316600290048015610c2b5780601f10610c0057610100808354040283529160200191610c2b565b820191906000526020600020905b815481529060010190602001808311610c0e57829003601f168201915b5050505050908060040160009054906101000a900473ffffffffffffffffffffffffffffffffffffffff16908060040160149054906101000a900460ff16905086565b6000845111610c7c57600080fd5b6000825111610c8a57600080fd5b600073ffffffffffffffffffffffffffffffffffffffff163373ffffffffffffffffffffffffffffffffffffffff161415610cc457600080fd5b8015610e075760008081548092919060010191905055506040518060c0016040528060005481526020018581526020018481526020018381526020013373ffffffffffffffffffffffffffffffffffffffff168152602001600115158152506001600080548152602001908152602001600020600082015181600001556020820151816001019080519060200190610d5d9291906115b2565b506040820151816002019080519060200190610d7a9291906115b2565b506060820151816003019080519060200190610d979291906115b2565b5060808201518160040160006101000a81548173ffffffffffffffffffffffffffffffffffffffff021916908373ffffffffffffffffffffffffffffffffffffffff16021790555060a08201518160040160146101000a81548160ff021916908315150217905550905050610f19565b6002600081548092919060010191905055506040518060a0016040528060025481526020018581526020018481526020018381526020013373ffffffffffffffffffffffffffffffffffffffff16815250600360006002548152602001908152602001600020600082015181600001556020820151816001019080519060200190610e939291906115b2565b506040820151816002019080519060200190610eb09291906115b2565b506060820151816003019080519060200190610ecd9291906115b2565b5060808201518160040160006101000a81548173ffffffffffffffffffffffffffffffffffffffff021916908373ffffffffffffffffffffffffffffffffffffffff1602179055509050505b50505050565b6003602052806000526040600020600091509050806000015490806001018054600181600116156101000203166002900480601f016020809104026020016040519081016040528092919081815260200182805460018160011615610100020316600290048015610fd15780601f10610fa657610100808354040283529160200191610fd1565b820191906000526020600020905b815481529060010190602001808311610fb457829003601f168201915b505050505090806002018054600181600116156101000203166002900480601f01602080910402602001604051908101604052809291908181526020018280546001816001161561010002031660029004801561106f5780601f106110445761010080835404028352916020019161106f565b820191906000526020600020905b81548152906001019060200180831161105257829003601f168201915b505050505090806003018054600181600116156101000203166002900480601f01602080910402602001604051908101604052809291908181526020018280546001816001161561010002031660029004801561110d5780601f106110e25761010080835404028352916020019161110d565b820191906000526020600020905b8154815290600101906020018083116110f057829003601f168201915b5050505050908060040160009054906101000a900473ffffffffffffffffffffffffffffffffffffffff16905085565b60008111801561114f57506000548111155b61115857600080fd5b611160611564565b600160008381526020019081526020016000206040518060c001604052908160008201548152602001600182018054600181600116156101000203166002900480601f0160208091040260200160405190810160405280929190818152602001828054600181600116156101000203166002900480156112215780601f106111f657610100808354040283529160200191611221565b820191906000526020600020905b81548152906001019060200180831161120457829003601f168201915b50505050508152602001600282018054600181600116156101000203166002900480601f0160208091040260200160405190810160405280929190818152602001828054600181600116156101000203166002900480156112c35780601f10611298576101008083540402835291602001916112c3565b820191906000526020600020905b8154815290600101906020018083116112a657829003601f168201915b50505050508152602001600382018054600181600116156101000203166002900480601f0160208091040260200160405190810160405280929190818152602001828054600181600116156101000203166002900480156113655780601f1061133a57610100808354040283529160200191611365565b820191906000526020600020905b81548152906001019060200180831161134857829003601f168201915b505050505081526020016004820160009054906101000a900473ffffffffffffffffffffffffffffffffffffffff1673ffffffffffffffffffffffffffffffffffffffff1673ffffffffffffffffffffffffffffffffffffffff1681526020016004820160149054906101000a900460ff16151515158152505090506000816080015190508073ffffffffffffffffffffffffffffffffffffffff166108fc349081150290604051600060405180830381858888f19350505050158015611430573d6000803e3d6000fd5b5033826080019073ffffffffffffffffffffffffffffffffffffffff16908173ffffffffffffffffffffffffffffffffffffffff168152505060008260a001901515908115158152505081600160008581526020019081526020016000206000820151816000015560208201518160010190805190602001906114b49291906115b2565b5060408201518160020190805190602001906114d19291906115b2565b5060608201518160030190805190602001906114ee9291906115b2565b5060808201518160040160006101000a81548173ffffffffffffffffffffffffffffffffffffffff021916908373ffffffffffffffffffffffffffffffffffffffff16021790555060a08201518160040160146101000a81548160ff021916908315150217905550905050505050565b60025481565b6040518060c0016040528060008152602001606081526020016060815260200160608152602001600073ffffffffffffffffffffffffffffffffffffffff1681526020016000151581525090565b828054600181600116156101000203166002900490600052602060002090601f016020900481019282601f106115f357805160ff1916838001178555611621565b82800160010185558215611621579182015b82811115611620578251825591602001919060010190611605565b5b50905061162e9190611632565b5090565b5b8082111561164b576000816000905550600101611633565b509056fea2646970667358221220639a17dd91242327681382dacf4e3121d71e29da3d5999237ef391b66b23194664736f6c634300060c0033",
  "immutableReferences": {},
  "source": "// SPDX-License-Identifier: GPL-3.0\r\n\r\npragma solidity ^0.6.0;\r\n\r\ncontract Trove{\r\n  \r\n    uint256 public originalPostCount = 0;\r\n    \r\n    mapping(uint => OriginalPost) public originalPosts;\r\n    \r\n    struct OriginalPost {\r\n        uint id;\r\n        string hash;\r\n        string phash;\r\n        string caption;\r\n        address payable owner;\r\n        bool martketplace;\r\n    }\r\n    \r\n    uint256 public feedPostCount = 0;\r\n    \r\n    mapping(uint => FeedPost) public feedPosts;\r\n    \r\n    struct FeedPost {\r\n        uint id;\r\n        string hash;\r\n        string phash;\r\n        string caption;\r\n        address payable owner;\r\n    }\r\n    \r\n      function uploadPost(string memory _postHash, string memory _phash, string memory _caption, bool _original) public {\r\n        // Make sure the post hash exists\r\n        require(bytes(_postHash).length > 0);\r\n        // Make sure post caption exists\r\n        require(bytes(_caption).length > 0);\r\n        // Make sure uploader address exists\r\n        require(msg.sender!=address(0));\r\n    \r\n        if(_original){\r\n            // Increment originalPost id\r\n            originalPostCount ++;\r\n        \r\n            // Add Post to the contract\r\n            originalPosts[originalPostCount] = OriginalPost(originalPostCount, _postHash, _phash,_caption, msg.sender, true);            \r\n        }else{\r\n            // Increment originalPost id\r\n            feedPostCount ++;\r\n        \r\n            // Add Post to the contract\r\n            feedPosts[feedPostCount] = FeedPost(feedPostCount, _postHash, _phash,_caption, msg.sender);            \r\n        }\r\n\r\n      }\r\n      \r\n      function changeOwner(uint256 _postId) public payable {\r\n        \r\n        // Make sure the id is valid\r\n        require(_postId > 0 && _postId <= originalPostCount);\r\n        \r\n        // Fetch the Post\r\n        OriginalPost memory _post = originalPosts[_postId];\r\n        \r\n        //Fetch the author\r\n        address payable _owner = _post.owner;\r\n        \r\n        // Pay the author by sending them Ether\r\n        (_owner).transfer(msg.value);\r\n        \r\n        // Change Owner\r\n        _post.owner = msg.sender;\r\n        \r\n        //Remove from martketplace\r\n        _post.martketplace = false;\r\n       \r\n        // Update the image\r\n        originalPosts[_postId] = _post;\r\n        \r\n      }  \r\n\r\n      function repost(uint256 _postId) public {\r\n        // Make sure the id is valid\r\n        require(_postId > 0 && _postId <= originalPostCount);\r\n\r\n        // Fetch the Post\r\n        OriginalPost memory _post = originalPosts[_postId];\r\n\r\n        // Add to martketplace\r\n        _post.martketplace = false;\r\n       \r\n        // Update the image\r\n        originalPosts[_postId] = _post;\r\n      }\r\n      \r\n}",
  "sourcePath": "C:/Users/Rishikesh Kale/unknown/src/contracts/Trove.sol",
  "compiler": {
    "name": "solc",
    "version": "0.6.12+commit.27d51765.Emscripten.clang"
  },
  "schemaVersion": "3.3.4",
  "updatedAt": "2021-06-13T12:34:17.134Z",
  "networkType": "ethereum",
  "devdoc": {
    "kind": "dev",
    "methods": {},
    "version": 1
  },
  "userdoc": {
    "kind": "user",
    "methods": {},
    "version": 1
  }
}